:0200000460009A
:100000004643464200000156000000000101020084
:1000100000000000000000000000000000000000E0
:1000200000000000000000000000000000000000D0
:1000300000000000000000000000000000000000C0
:1000400000000000010403000000000000000000A8
:100050000000200000000000000000000000000080
:100060000000000000000000000000000000000090
:100070000000000000000000000000000000000080
:10008000EB04180A063204260000000000000000FD
:10009000050404240000000000000000000000002F
:1000A0000000000000000000000000000000000050
:1000B0000604000000000000000000000000000036
:1000C0000000000000000000000000000000000030
:1000D00020041808000000000000000000000000DC
:1000E0000000000000000000000000000000000010
:1000F0000000000000000000000000000000000000
:1001000000000000000000000000000000000000EF
:100110000204180804200000000000000000000095
:1001200000000000000000000000000000000000CF
:10013000600400000000000000000000000000005B
:1001400000000000000000000000000000000000AF
:10015000000000000000000000000000000000009F
:10016000000000000000000000000000000000008F
:10017000000000000000000000000000000000007F
:10018000000000000000000000000000000000006F
:10019000000000000000000000000000000000005F
:1001A000000000000000000000000000000000004F
:1001B000000000000000000000000000000000003F
:1001C000000100000010000001000000000000001D
:1001D000000000000000000000000000000000001F
:1001E000000000000000000000000000000000000F
:1001F00000000000000000000000000000000000FF
:10020000D4D4D4D4D4D4D4D4D4D4D4D4D4D4D4D4AE
:10100000D10020400020006000000000000000002F
:1010100020100060001000600000000000000000D0
:101020000000006064DD000000000000EFBEADDEE7
:10103000124880F3088812481249016000F036F81F
:10104000114812490022814201D004C0FBE7104838
:101050001049114A814202D008CA08C0FAE70F4875
:101060004FF47001026842EA01020260BFF34F8F41
:10107000BFF36F8F00F014F800DE00000040002086
:1010800008ED00E00040002000500020A485002072
:10109000B8420020C044002070DD006088ED00E010
:1010A00041F2834CC0F2000C6047D4D41C4840F29B
:1010B000924188420CBF1B4A1B4A1C4B5360136869
:1010C00023F0800313601A481A4901BF1A480A0C1A
:1010D0008264C1F30F014164016C41F004010164B9
:1010E0001648174A824205D01649814202D008CAE2
:1010F00008C0FAE71448154A824205D014498142D3
:1011000002D008CA08C0FAE71248134A824205D042
:101110001249814202D008CA08C0FAE770470000AD
:10112000240400000080034000C00B4020C528D9E3
:1011300000C00A40AAAAFAFF00400E4000000000CA
:10114000B8220060FC9700000040002000200060F2
:10115000B842002000002020C0BA0060B022202049
:10116000D4D4D4D4D4D4D4D4D4D4D4D4D4D4D4D43F
:10117000D4D4D4D4D4D4D4D4D4D4D4D4D4D4D4D42F
:10118000D4D4D4D4D4D4D4D4D4D4D4D4D4D4D4D41F
:10119000D4D4D4D4D4D4D4D4D4D4D4D4D4D4D4D40F
:10200000004000203110006069280000E3970000C4
:10201000692800006928000069280000000000000D
:10202000000000000000000000000000692800001F
:10203000692800000000000069280000910D0000E0
:10204000692800006928000069280000692800004C
:10205000692800006928000069280000692800003C
:10206000692800006928000069280000692800002C
:10207000692800006928000069280000692800001C
:1020800069280000000000000000000000000000BF
:1020900069280000FF070000692800006928000087
:1020A00069280000692800006928000069280000EC
:1020B00069280000692800006928000069280000DC
:1020C00069280000692800006928000069280000CC
:1020D00069280000692800006928000069280000BC
:1020E00069280000692800006928000069280000AC
:1020F000692800006928000069280000692800009C
:10210000692800006928000069280000692800008B
:10211000000000006928000000000000692800009D
:10212000692800006928000069280000692800006B
:1021300069280000692800000000000069280000EC
:10214000692800006928000069280000692800004B
:10215000692800006928000000000000000000005D
:10216000692800006928000069280000692800002B
:10217000692800006928000069280000692800001B
:10218000692800006928000069280000692800000B
:1021900069280000692800006928000069280000FB
:1021A00069280000692800006928000069280000EB
:1021B00069280000692800006928000069280000DB
:1021C000692800006928000069280000000000005C
:1021D0006D080000692800006928000069280000D7
:1021E00069280000692800006928000069280000AB
:1021F000692800006928000069280000692800009B
:10220000692800001D1C00006928000069280000E2
:10221000692800006928000069280000692800007A
:10222000692800006928000069280000692800006A
:1022300069280000692800006928000000000000EB
:1022400000000000692800006928000069280000DB
:10225000692800006928000069280000692800003A
:10226000692800006928000069280000692800002A
:10227000692800006928000069280000692800001A
:10228000692800006928000069280000692800000A
:1022900069280000692800006928000069280000FA
:1022A000692800006928000069280000000000007B
:0822B000692800006928000004
:1022B800084640F20001C2F22001022208F066B886
:1022C8007047704780B56F4607F065FAFCE7F0B5D0
:1022D80003AF2DE9000F81B08846054607F058FA8C
:1022E800834607F04BFA07F05FFA45F2000AC2F29C
:1022F800000ADAF81040DAF81460BFF35F8FB442CE
:102308000BD00AF110000121204490F8089021EA2E
:102318000400BFF35F8FCAF810005FEACB7008BFF4
:1023280007F02EFAB44236D042F244315FFA89F00F
:10233800C2F2200141F8305001EBC000C0F804801F
:1023480007F026FA054607F019FA07F02DFADAF829
:102358004C004CF6CD42CCF6CC42411C0AEB400076
:10236800A1FB0223032280F8519080F85020BFF38C
:102378005F8F23F0030000EB9300081ACAF84C00A3
:10238800E80708BF07F0FCF94EF20C200025CEF252
:102398000000102101602846414601B0BDE8000F49
:1023A800F0BDF0B503AF2DE9000F83B08846814634
:1023B80007F0EEF9064607F0E1F907F0F5F945F2FE
:1023C800000AC2F2000ADAE90E0108430ED04EF202
:1023D8001000CEF200000068DAE91054C00307D5F7
:1023E800013544F10004CAE9105401E00025002435
:1023F800F00708BF07F0C4F907F0CAF9834607F0E9
:10240800BDF907F0D1F919EB0509DAF81C50DAF82B
:10241800206048EB0408BFF35F8FB5420AD00AF189
:102428001C0001212844047A21EA0500BFF35F8FCC
:10243800CAF81C005FEACB7008BF07F0A1F9B542E3
:1024480005D10120414603B0BDE8000FF0BD07F0FB
:102458009FF9019007F092F907F0A6F944F2B82B1A
:10246800DAF80000C2F2000B0290BBF860100130ED
:10247800DAE90E234FF6FF7CCAF80000B1EB0C0036
:1024880001EB410618BF0BEBC6001A4337D0614574
:102498000FD0D0E9000188EA010289EA0003B9EB0C
:1024A800000042EA030268EB01004AB1B0F1FF3FC5
:1024B80006DC4EF604504FF08061CEF20000016059
:1024C800BBF86220022102EB42004BF830900BEB84
:1024D800C000C0F80480814604735C4634F8605F2D
:1024E800DDF808804173654539F8101FC0F8088089
:1024F800ABF862103BD14FF6FF750198C7E0614514
:102508000FD0D0E9000188EA010289EA0003B9EB9B
:10251800000042EA030268EB01004AB1B0F1FF3F54
:1025280006DC4EF604504FF08061CEF200000160E8
:10253800BBF862205E46022102EB42004BF8309065
:102548000BEBC000C0F804808146047336F8604F76
:10255800DDF808804173644539F8101FC0F8088019
:10256800ABF862101AD14FF6FF740198CFE005EB73
:102578004501D0E900A800925BF831000BEBC101DE
:10258800496880EA0A0281EA08031A431DD1002437
:1025980007F0E2F8C0B284424CD042E004EB4401B8
:1025A800D0E9008A00925BF831000BEBC101496861
:1025B80080EA080281EA0A031A4319D1002607F0C3
:1025C800CBF8C0B2864275D06BE0B0EB0A0071EB75
:1025D800080120D46FF00042514061EA0004002C49
:1025E80018BF012407F0B8F8C0B2844222D018E01E
:1025F800B0EB080071EB0A014DD46FF00042514076
:1026080061EA0006002E18BF012607F0A5F8C0B23F
:1026180086424FD045E0FF2407F09EF8C0B28442BE
:1026280008D00BF160042EE0002607F095F8C0B240
:10263800864228D105EB45000BEBC0044FF6FF702E
:1026480034F8105F85421CD005EB45015BF831007A
:102658000BEBC101496880EA0A0281EA08031A43C0
:10266800E2D0B0EB0A0071EB080108D46FF0004229
:10267800514061EA0006002E18BF0126D5E7FF2663
:10268800D3E74FF6FF75DDF80880DDE90020A9F8EB
:10269800005022803EE0FF2607F05EF8C0B2864276
:1026A80008D00BF160062EE0002507F055F8C0B2FF
:1026B800854228D104EB44000BEBC0064FF6FF70AF
:1026C80036F8104F84421CD004EB44015BF831000B
:1026D8000BEBC101496880EA080281EA0A031A4340
:1026E800E2D0B0EB080071EB0A0108D46FF00042A9
:1026F800514061EA0005002D18BF0125D5E7FF25E7
:10270800D3E74FF6FF74DDF80880DDE90020A9F86B
:1027180000403280C00708BF07F032F80020414669
:1027280003B0BDE8000FF0BDF0B503AF2DE9000F11
:1027380083B08846814607F02BF8064607F01EF856
:1027480007F032F845F2000AC2F2000ADAE90E018F
:1027580008430ED04EF21000CEF200000068DAE90D
:102768001054C00307D5013544F10004CAE91054D8
:1027780001E000250024F00708BF07F001F807F082
:1027880007F8834606F0FAFF07F00EF819EB05097B
:10279800DAF82850DAF82C6048EB0408BFF35F8FAA
:1027A800B5420AD00AF1280001212844047A21EA16
:1027B8000500BFF35F8FCAF828005FEACB7008BF37
:1027C80006F0DEFFB54205D10120414603B0BDE861
:1027D800000FF0BD06F0DCFF019006F0CFFF06F019
:1027E800E3FF44F2B82BDAF80000C2F2000B0290C3
:1027F800BBF860100130DAE90E234FF6FF7CCAF807
:102808000000B1EB0C0001EB410618BF0BEBC60052
:102818001A4337D061450FD0D0E9000188EA010298
:1028280089EA0003B9EB000042EA030268EB010001
:102838004AB1B0F1FF3F06DC4EF604504FF080611C
:10284800CEF200000160BBF86220032102EB4200D7
:102858004BF830900BEBC000C0F80480814604733D
:102868005C4634F8605FDDF808804173654539F8E7
:10287800101FC0F80880ABF862103BD14FF6FF7507
:102888000198C7E061450FD0D0E9000188EA01024C
:1028980089EA0003B9EB000042EA030268EB010091
:1028A8004AB1B0F1FF3F06DC4EF604504FF08061AC
:1028B800CEF200000160BBF862205E46032102EB05
:1028C80042004BF830900BEBC000C0F80480814602
:1028D800047336F8604FDDF808804173644539F8B1
:1028E800101FC0F80880ABF862101AD14FF6FF74B9
:1028F8000198CFE005EB4501D0E900A800925BF80C
:1029080031000BEBC101496880EA0A0281EA080339
:102918001A431DD1002406F01FFFC0B284424CD0D8
:1029280042E004EB4401D0E9008A00925BF83100F0
:102938000BEBC101496880EA080281EA0A031A43DD
:1029480019D1002606F008FFC0B2864275D06BE0A8
:10295800B0EB0A0071EB080120D46FF0004251403F
:1029680061EA0004002C18BF012406F0F5FEC0B28D
:10297800844222D018E0B0EB080071EB0A014DD474
:102988006FF00042514061EA0006002E18BF012690
:1029980006F0E2FEC0B286424FD045E0FF2406F0C2
:1029A800DBFEC0B2844208D00BF160042EE00026A2
:1029B80006F0D2FEC0B2864228D105EB45000BEBEB
:1029C800C0044FF6FF7034F8105F85421CD005EB49
:1029D80045015BF831000BEBC101496880EA0A0246
:1029E80081EA08031A43E2D0B0EB0A0071EB080150
:1029F80008D46FF00042514061EA0006002E18BF6B
:102A08000126D5E7FF26D3E74FF6FF75DDF80880E6
:102A1800DDE90020A9F8005022803EE0FF2606F0FC
:102A28009BFEC0B2864208D00BF160062EE000255E
:102A380006F092FEC0B2854228D104EB44000BEBAD
:102A4800C0064FF6FF7036F8104F84421CD004EBD6
:102A580044015BF831000BEBC101496880EA0802C8
:102A680081EA0A031A43E2D0B0EB080071EB0A01CD
:102A780008D46FF00042514061EA0005002D18BFEC
:102A88000125D5E7FF25D3E74FF6FF74DDF8088069
:102A9800DDE90020A9F800403280C00708BF06F031
:102AA8006FFE0020414603B0BDE8000FF0BDD0B571
:102AB80002AF8AB006F071FE044642F2F420C2F278
:102AC800200048F2A0510068C2F20001C0690968FC
:102AD80003291DD3002140F204020591012102912E
:102AE800C2F22002049107A9039148F28F61C0F253
:102AF8000001C0B2019240F22C02089109A9099084
:102B080001A80791C2F220020321002306F057FF13
:102B1800204606F046FE0AB0D0BDD4D4F0B503AFC7
:102B28002DE9000FA7B045F20004C2F20004A06C22
:102B3800E16CBFF35F8F884206D1002006F031FEBA
:102B480027B0BDE8000FF0BD4CF6CD480DF10C0BD9
:102B5800CCF6CC484FF0010A4FF0000922E0216A78
:102B6800621882F824002AEA010042F2F821BFF331
:102B78005F8F2062C2F22001D1E9000101F01F013C
:102B88000AFA01F1C0F88C1042F210700021FFF728
:102B980008FC002840F02282A06CE16CBFF35F8F34
:102BA8008842CAD0421CA2FB081304F1480101EB79
:102BB8004000017A407ABFF35F8F9B0803EB8303E1
:102BC800D21AA264DFE801F00203BBE0C7E7A168FC
:102BD800621810732AEA0100BFF35F8FA060D0204B
:102BE80006F0DFFD002042F2B021C2F220010A5CAB
:102BF800002A1FBF01F8009001444B7842F20036CA
:102C08001EBFC2F220063254002B5ED042F20032C0
:102C18008E78C2F2200281F801900244002E53708F
:102C28001FBF81F80290CB789670002B4DD00E799B
:102C380081F80390D370002E1FBF81F804904B7960
:102C48001671002B41D08E7981F805905371002EB2
:102C58001FBF81F80690CB799671002B35D00E7A7C
:102C680081F80790D371002E1FBF81F808904B7A26
:102C78001672002B29D08E7A81F809905372002E93
:102C88001FBF81F80A90CB7A9672002B1DD00E7B5D
:102C980081F80B90D372002E1FBF81F80C904B7BEC
:102CA8001673002B11D08E7B81F80D905373002E74
:102CB8001FBF81F80E90CB7B9673002B05D0103088
:102CC80081F80F904028D3738DD142F2F02000256F
:102CD800C2F220000560F02006F063FD42F20036E3
:102CE800C2F2200603E00135402D3FF455AF705D78
:102CF80000283FF451AF48F2A051C2F20001096820
:102D08000229F0D940F2040140F24802C2F220013F
:102D18001390159148F28F61C0F2000115A8049133
:102D280013A903910321C2F220020023CDF8649075
:102D3800CDF858A0CDE917BA06F041FED3E7E16A0D
:102D4800621882F830002AEA0100BFF35F8FE06260
:102D580042F24030C2F220000078DFE810F00400B0
:102D6800E700F700070140F2CC101021C2F2200062
:102D7800FFF7ADFA002840F0408142F24030C2F23D
:102D8800200080F800A011E142F24431C2F2200193
:102D980051F8305001EBC0014E6861696218107635
:102DA8002AEA0100BFF35F8F606158464021CDE9F0
:102DB800015608F06CFED6B3A81900212A4612F96C
:102DC800016BB6F1FF3FF3B222DC6A7803F01F060D
:102DD800DF2B02F03F0218D9AC78F02B04F03F0447
:102DE80044EA821405F103021CD3127806F00703A3
:102DF80002F03F0242EA841242EA8343B3F5881F95
:102E080015D02A1D402906D1DFE042EA8613AA1C04
:102E1800402900F0DA800BF8013001318242154672
:102E2800CDD104E044EA06334029F4D1CDE048F29C
:102E3800A050C2F200000068032818D340F28000B6
:102E480040F28802C2F220000321159040F20000EF
:102E5800C2F22000C2F22002179015A80023CDF874
:102E68006490CDF858A0CDF8609006F0A8FDD02069
:102E780006F097FC59460DF1540C7CC94FF0000A36
:102E8800ACE87C007CC9ACE87C0091E87D008CE86B
:102E98007D0042F2F424C2F22004256840202690E6
:102EA80015A80AF10108CDF8948010F80A605EB1FF
:102EB800C2466869A96A03F00FFE0002F9D52068C6
:102EC800B8F1400FC661EBD1F02006F06AFC48F279
:102ED800A0504FF0010AC2F20000006803281CD37A
:102EE80040F2B80040F2C002C2F22000032115905F
:102EF80013A8179041F2DD60C0F20000C2F2200270
:102F0800149001A8139015A80023CDF86490CDF86B
:102F180058A0CDF860A006F052FD45F200044CF62A
:102F2800CD48C2F20004CCF6CC4835E640F29C10FD
:102F38000E21C2F22000FFF7CAF9002864D142F23C
:102F480040300221C2F2200001702FE040F26410EC
:102F58001621C2F22000FFF7BAF900285BD142F22D
:102F680040310320C2F2200108701FE048F2A0504F
:102F7800C2F200000068032818D340F2401040F263
:102F88004812C2F220000321159040F20000C2F25C
:102F98002000C2F22002179015A80023CDF86490F3
:102FA800CDF858A0CDF8609006F009FD43F68000F2
:102FB8000021C0F20100FFF7B7FB00283FF4ECAD99
:102FC80040F23C20C2F220000CE040F264024020B3
:102FD800C2F22002402106F04FFFFEDE40F2181038
:102FE800C2F2200040F20813009040F2DC0003AA6D
:102FF800C2F22000C2F220031DE0CDE9150140F223
:103008002C20C2F220000CE0CDE9150140F2AC10F2
:10301800C2F2200005E0CDE9150140F28C10C2F2A1
:10302800200040F27C13009040F2DC00C2F2200342
:10303800C2F2200015AA2B2106F03EFFFEDED4D4F2
:10304800F0B503AF2DE9000F81B04EF2100544F240
:10305800B82645F2000ACEF20005C2F20006C2F216
:10306800000A11E080F8502023F0030000EB9300E1
:10307800BFF35F8F081AE0645FEAC87008BF06F004
:103088007FFB1020C5F8FC0106F082FB804606F0A5
:1030980075FB06F089FBB6F860004FF6FF718842B1
:1030A80050D000EB4001B346A94606EBC101D1E977
:1030B80000EC2A68DAE91065D20304D5013645F137
:1030C8000005CAE910658EEA06028CEA050442EAA0
:1030D8000403BEEB06046CEB05022BB3B4F1FF331B
:1030E8006FF0004372EB03031ED2D9F80030DB0304
:1030F80008D5013645F10005BEEB06046CEB050268
:10310800CAE910656FF001031B1B6FF0004373EBF6
:10311800020209D38EEA06028CEA05031A4303D099
:1031280004244D465E460EE0BBF862205E460B8ADC
:103138004D4691F80CA04C7BABF86200ABF86030C0
:103148000A8200E004245FEAC87008BF06F018FB92
:10315800DFE804F01D3751036B0006F019FB8046C9
:1031680006F00CFB06F020FB45F200044CF6CD42BD
:10317800C2F20004CCF6CC42E06C411C04EB4000E7
:10318800A1FB022380F851A0A24602226AE706F0BA
:10319800FFFA804606F0F2FA06F006FB45F2000454
:1031A8004CF6CD42C2F20004CCF6CC42E06C411C95
:1031B80004EB4000A1FB022380F851A0A2460122A3
:1031C80050E706F0E5FA804606F0D8FA06F0ECFA81
:1031D80045F200044CF6CD42C2F20004CCF6CC42D3
:1031E800E06C411C04EB4000A1FB022380F851A0D5
:1031F800A246032236E706F0CBFA804606F0BEFA6E
:1032080006F0D2FA45F200044CF6CD42C2F20004B0
:10321800CCF6CC42E06C411C04EB4000A1FB02233D
:1032280080F851A0A24600221CE706F0B1FA044635
:1032380006F0A4FA06F0B8FA45F20002C2F200025B
:10324800D2E90E01084318BF02F1400009D02968ED
:10325800C90306D5D0E90012013142F10002C0E9E4
:103268000012E00706D101B0BDE8000FBDE8F0404C
:1032780006F086BA01B0BDE8000FF0BDF0B503AFA7
:103288002DE9000FABB00D46044601F1340038318A
:1032980005F1540200F0CAFBD5F8C80003F067FC3A
:1032A800D5F82801016841F001010160D5F828012D
:1032B800016821F0020101600021C0F80811C0F87E
:1032C8001811C0F82811C0F83811D5F8C080C4E921
:1032D8000000C4E90200D8F8000020F00100C8F896
:1032E8000000D8F8000040F40040C8F80000D8F802
:1032F800000000040CD5D8F80000000444BFD8F83A
:1033080000005FEA004003D5D8F800000004EED4BE
:103318003F20C8F80800D8F8000020F00100C8F8DD
:103328000000D5F8C490D9F8000020F00100C9F8D1
:103338000000D9F8000040F40040C9F80000D9F8AE
:10334800000000040CD5D9F80000000444BFD9F8E7
:1033580000005FEA004003D5D9F800000004EED46D
:103368003F20C9F80800D9F8000020F00100C9F88A
:103378000000D5F85C0103F0FBFBD5F800A0CDE90F
:10338800131040F26341DAF8480040F00100CAF82F
:103398004800DAF844000843CAF84400DAF8440060
:1033A800012161F38300CAF84400DAF8440020F0F0
:1033B8008000CAF84400DAF8480040F02000CAF853
:1033C8004800DAF8440040F44040CAF84400DAF80B
:1033D800440040F44470CAF84400DAF8480040F069
:1033E8008000CAF84800DAF8580000070CD0DAF86C
:1033F800580000071CBFDAF858005FEA007003D0D5
:10340800DAF858000007EED1DAF8480040F26341D4
:1034180040F02000CAF84800DAF8440020F44040A0
:10342800CAF84400DAF8440020F4447000F58870C3
:10343800CAF84400D5F804B0DBF8480040F00100B1
:10344800CBF84800DBF844000843CBF84400DBF82D
:103458004400012161F38300CBF84400DBF8440009
:1034680020F08000CBF84400DBF8480040F0200052
:10347800CBF84800DBF8440040F44040CBF8440067
:10348800DBF8440040F44470CBF84400DBF8480013
:1034980040F08000CBF84800DBF8580000070CD05B
:1034A800DBF8580000071CBFDBF858005FEA007023
:1034B80003D0DBF858000007EED1DBF8480040F0F5
:1034C8002000CBF84800DBF8440020F44040CBF85B
:1034D8004400DBF8440020F4447000F58870CBF811
:1034E8004400D5F87C01129003F0F5F9064603F084
:1034F800F4F91299034615A8324603F0F0F9D5F805
:10350800681127A84FF4805203F06EFBD5F89C0091
:103518001290D5F8A4001190D5F8A8001090D5F80D
:10352800AC000F90D5F884010E90D5F890010D905D
:10353800D5F89801D5E91712099004F58E7003F0B3
:103548001DFBD5F830010F22D5E942CE00F5907168
:10355800216700F1C001E16600F16001A166696BB5
:103568000C91A96B0B91696D0A91D5F880100491A3
:10357800D5F884100291D5F888100191D5F8E0109B
:103588000891D5F8E8100791D5F8FC100691D5F800
:1035980014110591D5F8041103914FF47041D5F831
:1035A8001C316066A0F88C11A0F88E212066D5F831
:1035B800340100F59076C4F8846000F1C006C4F8C0
:1035C8008060A0F88C11C4E91D00A0F88E2160303D
:1035D800E067D5F8380100F59076C4F8986000F1F6
:1035E800C006C4F89460A0F88C11C4E92200A0F8C1
:1035F8008E216030C4F89000D5F83C0100F5907534
:10360800C4F8AC5000F1C005C4F8A850A0F88C115B
:1036180000F16001C4F8A41004F1B801C4E927005E
:10362800A0F88E2148221398C4F81C031498C4F8F3
:103638002003099820631298A0611198E0611098FE
:1036480020620F9860620E98A0620D98E06204985C
:10365800C4F8B0000298C4F8B4000198C4E9048919
:1036680081E8010C15A90398C4E916C3C4E914E05C
:103678000598E0640698A064079860640898206438
:103688000A98E0630B98A0630C98606304F1C40087
:1036980008F0FBF927AB04F5867C0FCB8CE80F000C
:1036A8002BB0BDE8000FF0BD084640F24C21C2F235
:1036B8002001022206F06ABE704745F2100000237E
:1036C800C2F20000416842181372012222EA010185
:1036D800BFF35F8F4160704745F228000023C2F2B4
:1036E8000000416842181372012222EA0101BFF367
:1036F8005F8F4160704745F21C000023C2F2000052
:10370800416842181372012222EA0101BFF35F8F58
:103718004160704745F204000023C2F2000041688E
:1037280042181372012222EA0101BFF35F8F416040
:10373800704780B56F4606F021F8FFF7EBFFFFF7FB
:10374800BCFFFFF7D8FFFFF7C7FF48F298500121E9
:10375800C2F20000102201704EF21540CEF20000B5
:10376800F02180F84F104EF21001CEF20001C1F89E
:10377800FC20D02202704FF40010C1F8F0004EF681
:103788002350CEF2000000220270086840F00200C8
:10379800086000F003F8FEF795FDFEDEF0B503AF14
:1037A8002DE9000BADF59F6DCDAC204600F0FAFF7A
:1037B80004A82146FFF762FD0EAB0B98CD90CDA86B
:1037C8000ECB0DF1040C199C8CE80E0001F094F955
:1037D80004AE80468946304600F056FB01A93046C3
:1037E80000F057FB48F204100222C4F21F00012324
:1037F800016862F303010160016821F010010160B2
:1038080048F23051C4F21F010B60416862F30301B2
:103818004160416821F010014160C0F8283400205F
:10382800A2604FF4E131A060A06940F44020A0619B
:10383800A669A06920F44020A061A06A40F48040F5
:10384800A062A06A40F40040A06204A800F0E4F876
:10385800DDE9040141F6FF722369914238BF0A4647
:103868004EF20001CEF2FD01202801EA03019DF885
:10387800183028BF2020042898BF042011434FF097
:10388800F85202EB006041EA434100F0F850084367
:103898002061A069B10C61F39340A06104A804946D
:1038A80000F07AF84EF210040021CEF200042068ED
:1038B80020F001002060206840F00400206048F6F5
:1038C8009F40606042F21070FEF76BFD00283FD108
:1038D80047F2305000210026FEF726FFE8BB42F2EF
:1038E800B0204021C2F22000049D07F001FF42F2FF
:1038F800F4204021C2F22000056042F2F020C2F21A
:103908002000066042F2F820C2F22000C0E90089D7
:1039180042F20030C2F2200007F0EAFE42F24030E4
:103928000121C2F220000670A660206840F0010064
:10393800206045F23800C2F20000C0E90016C0E974
:10394800026605F01DFF0DF59F6DBDE8000BF0BD8B
:1039580040F2A020C2F2200003E040F2B020C2F200
:10396800200040F27C23009040F24E20A7F11C0278
:10397800C2F22000C2F220032B2106F09DFAFEDEDF
:103988000A46D0E90031184606F034BE0A46D0E9A6
:103998000031184606F062BFF0B503AF2DE9000B01
:1039A8000668D6F81880B06920F44020B061B06A83
:1039B80040F48040B062B06A40F40040B062B06A3F
:1039C80020F08000B062B06A20F00800B06203F016
:1039D80080F8044603F07AF88146B56903F079F86F
:1039E80025EA000004F400110843B061B46A03F04A
:1039F8006DF824EA000009F400110843B062B069C8
:103A08004FEA984120F01300B061B06961F3934028
:103A1800B061BDE8000BF0BD80B56F460A4641F2C3
:103A28000021C0F27A0102F0AAFF80BDF0B503AF11
:103A38004DF804BD0E4600211546044603F063F810
:103A4800284640F2E24103F065F8304603F040F9B9
:103A580040F220352146C2F2200500222846366869
:103A680003F000F9A81C2146002203F0FBF8281DEA
:103A78002146002203F0F6F8A81D2146002203F093
:103A8800F1F805F108002146002203F0EBF805F1F2
:103A98000A002146002203F0E5F805F10C00214652
:103AA800002203F0DFF805F10E002146002203F0A2
:103AB800D9F805F110002146002203F0D3F805F1EA
:103AC80012002146002203F0CDF805F1140021462A
:103AD800002203F0C7F805F116002146002203F082
:103AE800C1F805F118002146002203F0BBF805F1E2
:103AF8001A002146002203F0B5F805F11C00214602
:103B0800002203F0AFF805F11E002146002203F061
:103B1800A9F820684169890107D5416921F0007138
:103B28004161204602F0E0FF20684169012221F04E
:103B3800605141612068816962F30D3181612046DD
:103B480002F0D2FF2068416941F0007141612046CE
:103B580002F0CAFF4FF480503060642030604FF4A8
:103B6800005070603068002809D4306800285CBFB5
:103B78003068002803D43068B0F1FF3FF2DC2068D9
:103B88000122016962F302010161204602F0ACFFE3
:103B98002068416921F4E0514161204602F0A4FF08
:103BA8002068816941F4402181612068416921F0E0
:103BB80000714161204602F097FF206840F27A3593
:103BC800C2F220050022416941F440714161284652
:103BD800214603F047F8A81C2146002203F042F8CA
:103BE800281D2146002203F03DF8A81D2146002289
:103BF80003F038F82068022640F26A350022C2F243
:103C08002005816B66F3D84181632068816B41F49C
:103C1800802181632846214603F024F8A81C214608
:103C2800002203F01FF8281D2146002203F01AF88D
:103C3800A81D2146002203F015F8206840F26035DF
:103C48000322C2F22005816966F3051181612068AB
:103C5800816962F39C61816128462146002203F054
:103C680001F8A81C2146002202F0FCFF281D21466D
:103C7800002202F0F7FFA81D2146002202F0F2FF01
:103C880005F108002146002202F0ECFF2068172207
:103C980040F20C25C2F22005C16962F30501C16139
:103CA80020680022C16941F04001C16128462146CF
:103CB80002F0D8FFA81C2146002202F0D3FF281DDD
:103CC8002146002202F0CEFFA81D2146002202F064
:103CD800C9FF05F108002146002202F0C3FF05F1E3
:103CE8000A002146002202F0BDFF05F10C00214622
:103CF800002202F0B7FF05F10E002146002202F073
:103D0800B1FF206840F28235C2F220050322416AE1
:103D180041F0400141622068416A66F30501416251
:103D28002846214602F09EFFA81C2146032202F0E5
:103D380099FF281D2146032202F094FFA81D214661
:103D4800032202F08FFF05F108002146032202F04A
:103D580089FF05F10A002146032202F083FF05F1DD
:103D68000C002146032202F07DFF05F10E002146DA
:103D7800032202F077FF05F110002146032202F02A
:103D880071FF05F112002146032202F06BFF05F1D5
:103D980014002146032202F065FF05F116002146B2
:103DA800032202F05FFF05F118002146032202F00A
:103DB80059FF05F11A002146032202F053FF05F1CD
:103DC8001C002146032202F04DFF05F11E0021468A
:103DD800032202F047FF05F120002146032202F0EA
:103DE80041FF05F122002146032202F03BFF05F1C5
:103DF80024002146032202F035FF05F12600214662
:103E0800032202F02FFF05F128002146032202F0C9
:103E180029FF05F12A002146032202F023FF05F1BC
:103E28002C002146032202F01DFF05F12E00214639
:103E3800032202F017FF05F130002146032202F0A9
:103E480011FF05F132002146032202F00BFF05F1B4
:103E580034002146032202F005FF05F13600214611
:103E6800032202F0FFFE05F138002146032202F08A
:103E7800F9FE05F13A00214603225DF804BBBDE8CE
:103E8800F04002F0EFBE704780B56F4600F04EFE7E
:103E980080BD80B56F464EF20C1C4FF4003ECEF24A
:103EA800000C44F22032CCF880E0C2F20002BFF3EA
:103EB8005F8FD0E900318068C2E900319060BFF3BC
:103EC8005F8FCCF800E1CCF800E080BDF0B503AF1F
:103ED8002DE9000B8AB045F25C06C2F20006306894
:103EE80028B10AB0BDE8000BBDE8F040004749F230
:103EF80000000021C4F20D00C4F22E01039044F228
:103F08002030C2F20000CDE901110068062809D16D
:103F180004A801A9012200F077F8049800285DD1CF
:103F2800059D1BE000F0E4FE00F0E1FE049048F27D
:103F38008410C2F20000012200F21240BFF35F8F2A
:103F4800D0E84F1FC0E8432F002BF9D1BFF35F8F94
:103F580049B10DF1040999E83002BCBB35600AB0DB
:103F6800BDE8000BF0BD48F284154FF48061C2F241
:103F78000005284607F08BFD05F0F0FB44F22031E0
:103F88008046C2F20001284602F07CFB20B10DF108
:103F9800040999E8300214E001AA07AB07CA07C36D
:103FA80048F2841207A804ABC2F20002012100F013
:103FB8007AF842F69300C0F2000002F079FC054658
:103FC8000024404605F0D5FB002CC7D007A880E8A0
:103FD800300240F26C40C2F2200007E004AA07ABAE
:103FE80007CA07C340F25C40C2F2200040F2EC333B
:103FF800009040F2C03007AAC2F22000C2F22003AB
:104008002B2105F059FFFEDEF0B503AF4DF8048D06
:1040180084B015460E46044600F06AFE00F067FEBE
:10402800009048F28410C2F20000012200F212400F
:10403800BFF35F8FD0E84F1FC0E8432F002BF9D1A3
:10404800BFF35F8F31B196E8070007C404B05DF88D
:10405800048BF0BD48F284184FF48061C2F2000866
:10406800404607F014FD96E8070001AB07C305F0CA
:1040780075FB0646404602F023FB01A86B4629461D
:10408800424600F010F842F69300C0F2000002F039
:104098000FFC0021C4E90010304605F06AFB04B0AB
:1040A8005DF8048BF0BDF0B503AF2DE9000FC9B082
:1040B800064648F23410C2F200001D468A460260E5
:1040C8008DF8071005F070FB46F20004D6F8008062
:1040D800B668C2F2000441F238102118BFF35F8FAE
:1040E80051E8000F40F0004241E80023002BF7D1CF
:1040F800B0F1FF3FBFF35F8F40F3E78045F2610007
:104108000122C2F20000BFF35F8F00F5C070D0E853
:104118004F1FC0E8432F002BF9D100950029BFF3AA
:104128005F8F40F0DE8045F261004FF4C071C2F24B
:10413800000002F0F3FDCDE9460141F238102044B9
:1041480004F58651439006200DF1F40BCDE94001AA
:1041580004F580514FF000093F9101214290CDE9CB
:104168003D405846CDE94486ADF8209103F02EFC39
:10417800BBE87E000DF1080808F104007EC09BE84A
:104188007E007EC0012051468DF83C004046CDF8A7
:10419800089002F0C6FD00983DA93F900DF1070078
:1041A8003E903CA83D904046CDF8F09000F0A5F830
:1041B800414648F2000A5CC9C2F2000A0AF10C0042
:1041C8005CC07CC97CC091E87C0051467CC04FF43F
:1041D80080604022AAF804004046CAF84490CAF811
:1041E8000890CAF8009000F016F9B8E87E0048F286
:1041F8003810C2F200007EC098E87E007EC03220EF
:1042080002ACCDF816010220C4F200003DAACDF898
:1042180012011020ADF8100145F62400C2F2DD703D
:10422800514643900920409040F27C40C2F2200061
:10423800CDF804913F902046CDF8F49000F0E2F9D3
:10424800399D8121284602F0C7FD2846012102F048
:10425800C3FD2846822102F0BFFD2846022102F054
:10426800BBFD2846832102F0B7FD2846032102F052
:10427800B3FD2846842102F0AFFD2846042102F050
:10428800ABFD2846852102F0A7FD2846052102F04E
:10429800A3FD2846862102F09FFD2846062102F04C
:1042A8009BFD2846872102F097FD2846072102F04A
:1042B80093FD48F248002146C2F20000E82207F0C8
:1042C800E4FB49B0BDE8000FF0BD40F2007040F2D9
:1042D8009072C2F22000C2F220021F2105F00AFDEE
:1042E800FEDE40F2003040F28072C2F22000C2F2DC
:1042F8002002202105F0FEFCFEDEF0B503AF2DE91B
:10430800000784B0044690F83400D1E9005A8E685A
:1043180068B3206800286BD14FF0FF30206004F1AB
:104328002000296804F04FFDD6F8008001AE9AF805
:104338000050CDE90101304604F05FFD304604F03D
:10434800A3FD002D18BF01253046294604F0A8FD1D
:104358003046012104F069FD3046414604F073FD02
:10436800304604F056FD2068013020603CE005F03E
:104378000FFA804605F002FA05F016FA2068B8BB75
:104388004FF0FF30206004F12000296804F01BFD85
:1043980001ADD6F800909AF80060CDE901012846F1
:1043A80004F02BFD284604F06FFD002E18BF0126EF
:1043B8002846314604F074FD2846012104F035FDF5
:1043C8002846494604F03FFD284604F022FD2068AF
:1043D800013020605FEAC87006D104B0BDE800076C
:1043E800BDE8F04005F0CCB904B0BDE80007F0BD69
:1043F80040F2F44040F28843C2F2200003AA009041
:1044080040F2FC10C2F22000C2F22003102105F095
:1044180053FDFEDE7047F0B503AF2DE9000F87B0FE
:1044280004460868002840F0A78091F804B00020EE
:1044380008600E460BF1010008718868002840F0FA
:1044480096804FF0FF3006F10C059146B060FF20D2
:10445800082103220290CDE900212846802100226C
:1044680002F0A1FE8A46B168C00701F10101B160FE
:1044780040F09480306800287ED196F804800020AF
:104488000029306008F10102327170D14FF0FF311C
:104498000022B1600221CDE90019002102902846CE
:1044A80002F081FEB268C00702F10102B26040F07A
:1044B8008A80002A04915AD14FF0FF300021B06061
:1044C8000220CDE90009284602918021002202F04D
:1044D8006AFEC00701BFB0680130B06084F82CB034
:1044E80001BF4FF40070A4F8270084F82610A4F840
:1044F800249001BF06F14401216284F82D8040F226
:10450800FF3201BFA4F80F2084F80EA00822A28170
:1045180001BFA160A4F81B000498A07601BFA4F80D
:10452800189061610020E08501BFA071A2804FF45E
:10453800FA50206002BF07B0BDE8000FF0BDB068B8
:1045480040F2145307F8211CC2F220030130B06076
:1045580040F28050A7F12102C2F22000009040F200
:104568000450C2F220000F2105F0A6FCFEDE40F246
:104578002060C2F2200003E040F26060C2F2200036
:1045880040F2B453009040F2FC1006AAC2F2200098
:10459800C2F22003102105F08FFCFEDE40F290509D
:1045A80040F21453C2F22000A7F12302009040F217
:1045B8000450C2F22000C2F2200307F823AC0F21F6
:1045C80005F07AFCFEDE40F2805040F21453C2F24D
:1045D800200007F8221C009040F20450C2F220008C
:1045E800C2F22003A7F122020F2105F065FCFEDECE
:1045F8007047084640F2A051C2F22001122205F08D
:10460800F3BF7047F0B503AF2DE9000F85B004463E
:10461800886800287AD192F821A04FF0FF3001F184
:104628000C058860002090460E46CDE9000A0290ED
:10463800284600210122002302F0B5FD8946B16811
:10464800C00701F10101B16065D100295ED14FF0C9
:10465800FF304FF0000BB0602846802101228023F4
:10466800CDE900BACDF808B002F09DFDC00764D1CD
:10467800B068A17731680130A4F81FB006F1440B87
:104688000029B060A4F81CA0C4F818B06DD14FF090
:10469800FF31002831606DD12846B16002F00EFE6E
:1046A800B0680130B0606AD34FF0FF308021B0604D
:1046B80004F12400BFF35F8F7564BFF35F8F07F0C9
:1046C800E6F94FF0000CC4F8DC50A4F813C004F16C
:1046D800B40184F81290A4F810A0C4F80CB0B8E89B
:1046E8006D006DC198E86D006DC1042084F8E2C0CA
:1046F800C4E92BCCC4F8A4C0A4F800C0A4F8E30013
:10470800A4F8E0C005B0BDE8000FF0BD40F220609D
:10471800C2F2200037E040F2E06040F27063C2F27B
:104728002000A7F12202009040F2C020C2F220002F
:10473800C2F2200307F8229C13E0B06840F27063CD
:1047480007F8211CC2F220030130B06040F2F0608B
:10475800A7F12102C2F22000009040F2C020C2F26C
:104768002000202105F0A8FBFEDE40F23060C2F2F6
:10477800200008E040F24060C2F2200003E040F26E
:104788005060C2F2200040F2B453009040F2FC1096
:1047980004AAC2F22000C2F22003102105F08CFB0B
:1047A800FEDE7047F0B503AF2DE9000F81B045F28A
:1047B80060014FF0010CC2F20001BFF35F8FD1E836
:1047C8004F2FC1E843CF002BF9D1BFF35F8F002AE9
:1047D80001BF48F20001C4F20D010022C4F22F0209
:1047E80001BF02F5542C02F5502E02F54C28A1F514
:1047F800004401BFA1F5003501F5F61601F5F413E3
:10480800C0E9683601BFC0E96A54C0E96C8EC0E9E6
:104818006EC101F5005E01BF01F5805640F2040C3F
:10482800C4F22E0C01F5021401BF0CF5FE7501F55A
:10483800004300F5C07888E8380001BF00F5C6736A
:1048480083E81210C0E9666EA1F5404C01BF01F57E
:10485800881E01F5861801F5841401F5821301BF3D
:1048680001F5003602F51025C0E9585600F5B47573
:1048780001BF85E81A41C0F87CC1A1F5804C02F55A
:104888001C2E01BF02F5182802F51424A1F5E03307
:1048980001F5282601BF01F5EE15C0E9505600F5CF
:1048A800A47585E8184101BFC0E9562C02F578289F
:1048B80002F5742902F5702401BF02F56C234CF24D
:1048C800000CC4F2070C0CF5004601BF01F5E03EF0
:1048D80001F58E15C0E9485EC0E94A6101BF00F5DF
:1048E800987585E81802C0F83C8101F5482801BF91
:1048F80001F5442901F5402A01F53C2B01F538233F
:1049080001BF01F5342401F5302501F52C26C0E955
:10491800406501BFC0E94243C0E944BAC0E94698CE
:1049280002F5302801BF02F52C2902F5282A02F5E4
:10493800242B02F5861301BF02F5841402F58215B3
:1049480002F58016C0E9386501BFC0E93A43C0E9FD
:104958003CBAC0E93E9801F5F01801BF01F592197B
:10496800A1F5503AA1F5403BA1F5303301BF01F55F
:10497800901401F58C1501F58A16C0E9306501BF60
:10498800C0E93243C0E934BAC0E9369844F2000BB2
:1049980001BFC4F2002B0BF500490BF5804A4FF01C
:1049A800844801BF01F56C2601F5682401F56425EA
:1049B800A1F5C03301BFC0E9283500F1A80383E899
:1049C8005009C0E92EA901BF01F5602801F5E619D3
:1049D80001F5E81AA1F5203601BF0BF5E03301F522
:1049E800582401F55425C0E9205401BF00F188047A
:1049F80084E84804C0E9259EC0F89C8001BFA1F561
:104A0800103E01F5FE1801F5001902F5642A01BFF0
:104A180002F5602302F55C2602F5582501F5A0345D
:104A280001BF00F1600B8BE87000C0E91B3AC0E9D8
:104A38001D9801BFC0F87CE001F5803E02F54048B2
:104A48000CF5804901BF01F5804A01F5F21344F2E3
:104A58000806C4F2090601BF06F1100506F10804AC
:104A6800C0E91064C0E9125301BFC0E914A9C0E944
:104A7800168E0CF5C03E01F5103801BF01F58019FE
:104A880001F57C2401F5782302F57C2601BF02F5A7
:104A98004825C0E9085600F1280585E8180201BF35
:104AA800C0E90D81C0F83CE002F5442E02F50C2661
:104AB80001BF01F5D21501F5242402F54022A1F524
:104AC800803301BFA1F5A031C0E90013C0E9022C71
:104AD800103001BF80E8704001B0BDE8000FF0BDA4
:104AE80040F2A07040F63402C2F22000C2F2200266
:104AF800352105F0AAF9FEDE48F248110068C4F233
:104B08001F0105230A6863F303020A60416841F044
:104B18000801416003217047FEE7006805F0F2B91B
:104B28000A46D0E90031184605F098BE40F644021E
:104B38000021C2F220020523C0E9003281607047DB
:104B48007047F0B503AF2DE9000B84B040F6440080
:104B580048F2301848F24805C2F220000390C2F229
:104B6800000808F10800C2F2000502A902902846D0
:104B7800012200F0DFFA04460021D5F8DC0002919A
:104B880002A901F09DF8064695F8E21098F8000091
:104B9800022937D168B9D5F8DC0002F0C3FA002140
:104BA800D5F8DC00029102A901F057F9012088F834
:104BB8000000D8F81C000168BFF35F8F002900F0DF
:104BC8008A80002098F8222040F67803009002A8F6
:104BD800C2F22003344302F019FD7CB1D8F8040076
:104BE8000122BFF35F8F00F58264D4E84F1FC4E849
:104BF800432F002BF9D1BFF35F8F91B104B0BDE80B
:104C0800000BF0BD30B10021D5F8DC00029102A9FB
:104C180001F0CEF8002088F8000004B0BDE8000BD1
:104C2800F0BDD0F80014BFF35F8FD0F80824BFF3AD
:104C38005F8FD0F8043400F20445BFF35F8F9342CE
:104C480005D199423EBFBFF35F8F00232B60994285
:104C580028BF0A469A4236D0D8F828100968BFF308
:104C68005F8FC1B3A2EB030998F82E20034402A872
:104C78004E46B9F1400F28BF4026009602F004FCCA
:104C88009DF8080068B12078BFF35F8F0028B5D081
:104C9800BFF35F8F55E8000F45E800010029F9D1FF
:104CA80011E003982178BFF35F8F0029A6D08145D2
:104CB80038BF4846BFF35F8F55E8001F014445E8F9
:104CC8000012002AF8D10020BFF35F8F207004B0D3
:104CD800BDE8000BF0BD40F69C1040F62022C2F261
:104CE8002000C2F22002222105F0AFF8FEDE704754
:104CF8004FF47A607047F0B503AF2DE9000784B030
:104D08001D46904689468246D6000C4686B1F4E890
:104D180002012A464B6A51469847BAF80000083EF5
:104D280000F00D000428F1D004B0BDE80007F0BD84
:104D3800687A20B3BAF8000000F00D000428F3D117
:104D4800DAF80C000921AAF800100068BFF35F8F99
:104D580000286CD09AF81210012202F019FDDAF836
:104D680018000068BFF35F8F002860D09AF81E1003
:104D7800012202F00DFD04B0BDE80007F0BD297A5C
:104D8800A879022916D0012923D00029D2D198B3B5
:104D9800062843D00828CDD19AF8E20001210391D2
:104DA800A7F1220102380291B0FA80F0400907F811
:104DB800220C2EE00028BDD16988DAF8DC0001F069
:104DC8008F0102F066FD02210391A7F122010291F1
:104DD8001DE050B10A28ADD101200390A7F12200AF
:104DE8000290002007F8220C13E002200390A7F19C
:104DF8002200029000200AE09AF8E00002229AF8C5
:104E0800E1100392A7F12202029241EA400027F83A
:104E1800220C02A9504600F081FD8BE70AF1B4008C
:104E2800494642465346009500F0D8F882E740F6D6
:104E38009C1040F62022C2F22000C2F22002222159
:104E480005F003F8FEDED4D4F0B503AF4DF8048DB9
:104E580084B01D460E468046D4006CB1F6E80201C7
:104E68002A460B6A41469847B8F80000083C00F00B
:104E78000D000428F1D09EE0687A30B1B8F800003F
:104E880000F00D00042864D095E02A7AA8792988D2
:104E9800022A31D0012A11D0002A5AD10138082813
:104EA80057D8DFE800F00556425648565656510086
:104EB80001294ED1002088F8E00086E00B2808BFC1
:104EC800002946D1B8F800000628D7D1D8F818002C
:104ED8000168BFF35F8F002961D098F81E20002079
:104EE80040F60413009002A8C2F2200302F0CCFAA4
:104EF8000820A8F80000C1E703280CD0012808BF43
:104F0800002926D169880022D8F8DC0001F08F0139
:104F180002F03EFC59E0E1B969880122D8F8DC00CA
:104F280001F08F0102F034FC4FE0012911D101207A
:104F380088F8E00049E0481E80B27F2809D2D8F8F6
:104F4800DC0002F06EF93DE0C9B3012901D102206D
:104F580039E0B8F8000000F00D0004282BD1D8F88B
:104F68000C000921A8F800100068BFF35F8FB0B1EA
:104F780098F81210012202F00BFCD8F8180000680B
:104F8800BFF35F8F00281FBF98F81E10012204B0DE
:104F98005DF8048B1CBFBDE8F04002F0F9BB40F699
:104FA8009C1040F62022C2F22000C2F220022221E8
:104FB80004F04BFFFEDE04B05DF8048BF0BD98F8FA
:104FC800E20030B1012088F8E200404600F0EBF939
:104FD80054E7404600F01DFC50E7D4D4F0B503AFC9
:104FE8002DE9000B88B00646B86814460D46984669
:104FF8000196018902684068ADF81010CDE90220D9
:1050080002A803F092FF4FF0FF3252FA80F00E2808
:1050180000F26180DFE800F008101C5F5F5F5F5FEF
:105028005F5F5F5F5F5F2A0001A9404600F01DFCDB
:1050380008B0BDE8000BF0BD01A805A905904046E1
:10504800CDE9065400F0F1FC08B0BDE8000BF0BD56
:10505800C8B2032813D8DFE800F0022428384046F5
:1050680000F085FC08B0BDE8000BF0BD40462946BD
:10507800224600F0ADFD08B0BDE8000BF0BD0846C3
:1050880004F042FBBDF80A608146E4001CB3F5E871
:10509800020132464B6949469847083C0028F5D03A
:1050A80009E0311D306828B915E006F10C01083611
:1050B800306880B10968CDE9050105A9404600F0CE
:1050C8002CFD08B0BDE8000BF0BD06F11401103648
:1050D80030680028EED1B8F8000000F00D00042870
:1050E800A6D1D8F80C000921A8F800100068BFF371
:1050F8005F8F98B198F81210012202F049FBD8F896
:1051080018000068BFF35F8F40B198F81E100122A5
:1051180002F03EFB08B0BDE8000BF0BD40F69C1065
:1051280040F62022C2F22000C2F22002222104F01E
:105138008CFEFEDEF0B503AF2DE9000F8DB0D0F880
:10514800DC40064605A888469246214602F0F3FB55
:1051580096F8E200BDF81450032816D1002D4FF040
:10516800000018BF032D03D10DB0BDE8000FF0BD3E
:10517800204602F0DFFB96F8E300042800F00781E0
:10518800042186F8E20086F8E310DFE805F003085A
:10519800274A030000200DB0BDE8000FF0BDD6F887
:1051A800DC0002F0CFF800204FF48061BAF1000F64
:1051B80086F8E40086F8E000A6F8E2103080E9D02E
:1051C80008EBCA04A8F1080555F8080F6968896949
:1051D800884705F10800A042F6D1DBE7BDF81600C4
:1051E800BDF81810BDF81A200290084340EA0209D9
:1051F800049103925FEAC97052D00498C0071CBF9B
:10520800304600F09FFA0398C0071AD10298C007E9
:1052180020D104208DF825009DF82500042821D1EF
:105228003CE0D6F8DC0002F085FB96F8E20086F850
:10523800E300032086F8E20000200DB0BDE8000F6F
:10524800F0BD07A8314600F06FF99DF82500042845
:1052580008D123E007A8314600F0CEF89DF82500D4
:1052680004281BD09DF8230000287AD0802815D167
:10527800DDE907010AABBDF82420CDE90A01304673
:10528800ADF8302041465246FFF735FD29F00109B7
:10529800B9F1000FCDE9008A07D14DE029F00109E5
:1052A800B9F1000FCDE9008A46D00199002953D001
:1052B800009801264FF0020B00EBC108A0F1080589
:1052C80003981BEA000F0BD02C4654F8080F6168AE
:1052D8008A6A3146904704F108004045F5D10EE04E
:1052E80002981BEA000F0AD02C4654F8080F616890
:1052F800CA6A3146904704F108004045F5D1049840
:105308001BEA000F0DD066F07F04AA465AF8080F72
:10531800DAF804100A6B214690470AF10800404564
:10532800F4D129EA0B095FEA094005D0701C0F2E59
:105338004FEA4B0B0646C3D3019969B1009800EBBD
:10534800C104A0F1080555F8080F6968C9698847BC
:1053580005F10800A042F6D101200DB0BDE8000F0C
:10536800F0BDDDE907010AABBDF82420CDE90A014B
:105378003046ADF8302041465246FFF765FD29F02A
:105388000109B9F1000FCDE9008A8ED1D4E740F6C2
:10539800780040F6F402C2F22000C2F220021C217A
:1053A80004F0A8FCFEDED0B502AF84B00446008845
:1053B800062812D1A0690168BFF35F8F81B1002070
:1053C800A27F40F60413009002A8C2F2200302F064
:1053D8005BF80820208004B0D0BD072004B0D0BD01
:1053E80040F69C1040F62022C2F22000C2F22002B1
:1053F800222104F02AFDFEDEF0B503AF4DF804BD0E
:1054080086B0044608880D46411E032928D305287E
:1054180026D0072836D1D5F8AC00D5F806306989EA
:105428008128D5F80220ADF80C10CDE9012373D2FC
:10543800E9680968BFF35F8F002961D0C0F1800374
:10544800AA7C2844009300F1240304A802F0DEF8A3
:105458009DF8100000283ED09DF8110008BB34E0EC
:10546800E8680168BFF35F8F002949D0AA7C40F63D
:10547800041304A80026C2F22003009602F0C6F81E
:105488002E8022E0E8680168BFF35F8FC1B3002077
:10549800AA7C40F60413009004A8C2F2200302F08C
:1054A800B5F8E868092129800068BFF35F8F38B331
:1054B800A97C012202F06CF9A8690068BFF35F8F2C
:1054C800F0B1A97F012202F063F90420607206B0EE
:1054D8005DF804BBF0BD0598D5E92B120844C5F862
:1054E800AC009042F1D3DDE901010623BDF80C20A0
:1054F8002B8020606160228106B05DF804BBF0BD9E
:1055080040F69C1040F62022C2F22000C2F220028F
:10551800222104F09AFCFEDE40F66C128021C2F2D1
:10552800200205F067FAFEDEF0B503AF2DE9000FA3
:1055380085B00446C8680D460168BFF35F8F00292F
:1055480000F08B8005F124068020AA7C009002A838
:10555800334602F05BF89DF8080018B19DF8090081
:1055680060B921E0039A812A80F0838002A831463D
:1055780003F0BDFC9DF8110004281BD1E86809213F
:1055880029800068BFF35F8F002866D0A97C0122BC
:1055980002F0FEF8A8690068BFF35F8F00285CD0AE
:1055A800A97F012202F0F4F80420607205B0BDE87A
:1055B800000FF0BDE868BDF810A09DF80F609DF8D9
:1055C8000E90BDF80CB0DDF808800068BFF35F8F5F
:1055D800002842D0A97C002202F0DAF8BEB10420EB
:1055E800A5F80AA06E7285F80890A5F806B0C5F867
:1055F80002802880A4F808A0E67184F80690A4F830
:1056080004B0C4F8008005B0BDE8000FF0BDBBF1E0
:10561800000F11D0BBF1800FB0D80020A5F80AA068
:10562800C5E92B0B6872072085F80890A5F806B025
:10563800C5F802802880B7E70620A4F808A02880CB
:105648000020C5F8B000E07184F80690A080C4F886
:10565800008005B0BDE8000FF0BD40F69C1040F694
:105668002022C2F22000C2F22002222104F0EDFB27
:10567800FEDE40F67C131046C2F2200380211A4653
:1056880005F0D8F9FEDEB0B502AF84B00446D0E923
:105698002951D0F8AC00D4F8B0C0002DA38BAE4689
:1056A800ACEB000208BF04F1240E9A4238BF13463F
:1056B800002D03EB000C08BF80219C4525D38C45A9
:1056C8002BD8A1690968BFF35F8F71B3A27F0093DC
:1056D8000EEB000302A801F0D7FE9DF8080008B100
:1056E80004B0B0BD0398D4E92B120144C4F8AC103F
:1056F8009142F5D30021A28BC4F8A4100321904253
:1057080008BF0221218004B0B0BD40F68C1261466A
:10571800C2F2200205F0AEF9FEDE40F68C126046B9
:10572800C2F2200205F086F9FEDE40F69C1040F633
:105738002022C2F22000C2F22002222104F085FBBE
:10574800FEDED4D4B0B502AF84B004460088013878
:10575800072834D8DFE800F0040B24333333334B05
:105768002046FFF790FF0025284604B0B0BDA06989
:105778000168BFF35F8F00293FD0A27F40F6041372
:1057880002A80025C2F22003009501F07DFE9DF8D5
:105798000800002804BF03202080284604B0B0BDBC
:1057A800E0680068BFF35F8F38B3A17C0022002552
:1057B80001F0EEFF05202080284604B0B0BDE06867
:1057C800092121800068BFF35F8FB0B1A17C01225D
:1057D80001F0DEFFA0690068BFF35F8F68B1A17FA9
:1057E800012201F0D5FF0025284604B0B0BD0020F5
:1057F80001252080284604B0B0BD40F69C1040F634
:105808002022C2F22000C2F22002222104F01DFB55
:10581800FEDED0B502AF0446008800F00D00042873
:1058280015D1E068092121800068BFF35F8F80B13E
:10583800A17C012201F0ACFFA0690068BFF35F8F73
:1058480038B1A17F012201F0A3FF0820D0BD0720B5
:10585800D0BD40F69C1040F62022C2F22000C2F2D1
:105868002002222104F0F1FAFEDEF0B503AF4DF874
:10587800048D88B00446008804282ED10D686E4631
:1058880004F1240130468022B4F8068003F050FB6E
:105898003046294603F0A4FBC0B2082819D168464F
:1058A80003F04FFB80281DD9E0680921218000689A
:1058B800BFF35F8F30B3A17C012201F069FFA069BB
:1058C8000068BFF35F8FE8B1A17F012201F060FF9C
:1058D800022008B05DF8048BF0BD072008B05DF821
:1058E800048BF0BD404538BF804601200021208050
:1058F8002046C4E92B18FFF7C6FE082008B05DF85B
:10590800048BF0BD40F69C1040F62022C2F2200025
:10591800C2F22002222104F098FAFEDEF0B503AFAD
:105928004DF804BD04460088042806D14D68802D32
:1059380007D902205DF804BBF0BD07205DF804BB61
:10594800F0BD096804F124002A46E68806F09BF8B1
:105958000020B54238BF2E46C4E92B06012020801E
:105968002046FFF790FE08205DF804BBF0BDF0B5B7
:1059780003AF4DF804BD8AB004460088042833D12B
:1059880001AD04F124018022E688284603F0D0FA0C
:1059980040F20940A7F1120227F8120C2846032109
:1059A800022303F0D0FAC0B2082819D101A803F0E5
:1059B800C8FA80281DD9E068092121800068BFF352
:1059C8005F8F30B3A17C012201F0E2FEA06900687C
:1059D800BFF35F8FE8B1A17F012201F0D9FE022059
:1059E8000AB05DF804BBF0BD07200AB05DF804BB3F
:1059F800F0BDB04238BF0646012000212080204675
:105A0800C4E92B16FFF73FFE08200AB05DF804BB77
:105A1800F0BD40F69C1040F62022C2F22000C2F2EF
:105A28002002222104F011FAFEDEF0B503AF2DE9C1
:105A3800000788B08246008804284CD191E85002BB
:105A48006D460AF1240128468022BAF8068003F040
:105A58006FFA2168284603F05DFBC0B2082836D1EA
:105A6800B9F1000F10D006EBC9046D46D6E9000164
:105A7800CA6829469047C0B2082828D1284603F0AA
:105A8800B1FB0836A642F1D16D46284603F0ADFBBE
:105A9800284603F056FA802822D9DAF80C000921A2
:105AA800AAF800100068BFF35F8F50B39AF812107D
:105AB800012201F06DFEDAF818000068BFF35F8F6D
:105AC800F8B19AF81E10012201F062FE022008B017
:105AD800BDE80007F0BD072008B0BDE80007F0BD2D
:105AE800404538BF804601200021AAF800005046F2
:105AF800CAE92B18FFF7C7FD082008B0BDE8000762
:105B0800F0BD40F69C1040F62022C2F22000C2F2FE
:105B18002002222104F099F9FEDEF0B503AF2DE949
:105B2800000B88B004460088042830D1D1E900561B
:105B3800E84604F1240140468022B4F8069003F0B8
:105B4800F7F940462946324603F025FCC0B208283A
:105B580019D1684603F0F5F980281DD9E0680921B4
:105B680021800068BFF35F8F30B3A17C012201F070
:105B78000FFEA0690068BFF35F8FE8B1A17F012223
:105B880001F006FE022008B0BDE8000BF0BD0720BA
:105B980008B0BDE8000BF0BD484538BF814601207C
:105BA800002120802046C4E92B19FFF76CFD08204E
:105BB80008B0BDE8000BF0BD40F69C1040F620226E
:105BC800C2F22000C2F22002222104F03EF9FEDED9
:105BD800F0B503AF2DE9000F8BB083460088042889
:105BE80026D10D46E9460BF124019046484680220D
:105BF800BBF806A003F09CF908AE4946304603F00E
:105C080088FC304603F089FCC0B208280CD108AEE5
:105C18004FEAC8048CB1F5E802010A693146904799
:105C2800083CC0B20828F5D00BB0BDE8000FF0BDA5
:105C380007200BB0BDE8000FF0BD08A803F03FFD3A
:105C4800684603F07EF980281DD9DBF80C0009218D
:105C5800ABF800100068BFF35F8F28B39BF81210F1
:105C6800012201F095FDDBF818000068BFF35F8F93
:105C7800D0B19BF81E10012201F08AFD02200BB062
:105C8800BDE8000FF0BD504538BF82460120002115
:105C9800ABF800005846CBE92B1AFFF7F4FC0820B4
:105CA8000BB0BDE8000FF0BD40F69C1040F6202276
:105CB800C2F22000C2F22002222104F0C6F8FEDE61
:105CC800F0B503AF4DF804BD84B0044690F8340035
:105CD8000E68D8B12068002858D14FF0FF3120460F
:105CE80040F8201B314603F06EF8CDE9010101A808
:105CF80003F0BBF860B301AD284603F0C5F82846A9
:105D080003F0B3F80028F7D1012626E003F040FDA0
:105D1800054603F033FD03F047FD2068B0BB4FF0A4
:105D2800FF31204640F8201B314603F04CF8CDE9FE
:105D3800010101A803F099F8B8B101AE304603F0AB
:105D4800A3F8304603F091F80028F7D1012611E0B6
:105D580001A803F048F880F00106206801302060AF
:105D6800304604B05DF804BBF0BD01A803F03BF871
:105D780080F00106206801302060E80708BF03F0C2
:105D8800FFFC304604B05DF804BBF0BD40F69C2033
:105D980040F63023C2F2200003AA009040F2FC1023
:105DA800C2F22000C2F22003102104F085F8FEDEC2
:105DB800F0B503AF4DF804BD84B0044690F8340044
:105DC8000D6890B12068B0BB4FF0FF3029462060C5
:105DD80004F1200002F0F7FFCDE9010101A803F06A
:105DE8000CF820680130206021E003F0D1FC064661
:105DF80003F0C4FC03F0D8FC2068E0B94FF0FF3092
:105E08002946206004F1200002F0DDFFCDE9010100
:105E180001A802F0F2FF206801302060F00706D1E7
:105E280004B05DF804BBBDE8F04003F0A9BC04B0C1
:105E38005DF804BBF0BD40F69C2040F63023C2F26A
:105E4800200003AA009040F2FC10C2F22000C2F227
:105E58002003102104F030F8FEDEF0B503AF4DF852
:105E680004BD84B0044690F834000E68C8B12068B8
:105E7800002842D14FF0FF31204640F8201B314620
:105E880002F0A1FFCDE9010101A803F021F80028E3
:105E98001CBF0DF1040002F09AFF20680130206059
:105EA80027E003F075FC054603F068FC03F07CFC72
:105EB800206810BB4FF0FF31204640F8201B3146C8
:105EC80002F081FFCDE9010101A803F001F80028E3
:105ED8001CBF0DF1040002F07AFF20680130206039
:105EE800E80706D104B05DF804BBBDE8F04003F054
:105EF80047BC04B05DF804BBF0BD40F69C2040F6FA
:105F08003023C2F2200003AA009040F2FC10C2F233
:105F18002000C2F22003102103F0CEFFFEDE7047FE
:105F2800002070477047082070477047F0B503AFEE
:105F38004DF8048D0546507A012802BF1646107A9E
:105F4800012802D05DF8048BF0BD95F82C00884636
:105F5800748803F0D9FBC0B28442F3D1B079212808
:105F680004BFB088072830D0B8F8000000F00D0052
:105F78000428E7D1D8F80C000921A8F80010006817
:105F8800BFF35F8FA8B198F81210012201F000FC4E
:105F9800D8F818000068BFF35F8F00281FBF98F873
:105FA8001E1001225DF8048BBDE8F04018BF01F017
:105FB800EFBB40F69C1040F62022C2F22000C2F24D
:105FC8002002222103F041FFFEDEB8F80000042879
:105FD800B8D1B8F80600002329796A790728C8F8E3
:105FE800AC30AB792E684FF00105A8F80050C8F81E
:105FF800246088F8283088F8292088F82A1028BFD3
:106008000720C8F8B00040465DF8048BBDE8F040B2
:10601800FFF739BBF0B503AF4DF8048D84B00546E2
:10602800507A012802BF1646107A012803D004B01E
:106038005DF8048BF0BD95F82C008846748803F051
:1060480063FBC0B28442F2D1B07988B1202814D061
:10605800222847D13078B8F8001000F0010285F8FE
:106068002E20C0F3400085F82F000629DFD121E05B
:10607800B8F800000628DAD11CE0D8F8B00081286A
:1060880062D206282ED998F82800D8F8241029605A
:1060980000F00FFC98F82910C0B2A871084600F06B
:1060A8000DFC98F82A20C0B2B8F8001068712A715F
:1060B8000629BCD1D8F818000168BFF35F8FB9B3BF
:1060C80098F81E20002040F60413009002A8C2F29F
:1060D800200301F0D9F90820A8F8000004B05DF801
:1060E800048BF0BDB8F8000000F00D0004289ED124
:1060F800D8F80C000921A8F800100068BFF35F8FDA
:10610800B0B198F81210012201F042FBD8F818003B
:106118000068BFF35F8F00281FBF98F81E10012288
:1061280004B05DF8048B1CBFBDE8F04001F030BB43
:1061380040F69C1040F62022C2F22000C2F2200253
:10614800222103F082FEFEDE40F618328021C2F2E0
:10615800200204F06FFCFEDEF0B503AF2DE9000B62
:1061680084B090F82C60814600250220CDE9000516
:106178000C46084631460222022303F047F8C0B213
:1061880008286ED12046314602220223009503F0EA
:1061980093F8C0B2082864D140F6AC222046C2F277
:1061A80020022421032302F0CEFEC0B2082858D1D1
:1061B80040F6AF222046C2F220022421022302F038
:1061C800C2FEC0B208284CD1304603F09DFA99F8B7
:1061D8002D800646404603F097FA07F81C0C062067
:1061E800A7F11E0207F81E0C20462421032307F8F6
:1061F8001D6C02F0A8FEC0B2082832D1404603F058
:1062080083FA07F8190C0120A7F11B0227F81B0CC9
:1062180020462421032302F096FEC0B2082820D18C
:1062280009F10801204600F02FF8C0B2082818D15B
:1062380000204146009020460A22002303F03CF843
:10624800C0B208280DD109F12001204600F01CF841
:10625800C0B2082805D109F11401204600F014F84D
:10626800C0B204B0BDE8000BF0BDD0B502AF82B03B
:106278000446684600F027FBDDE90001C4E9000197
:106288000020E08502B0D0BDF0B503AF4DF8048D15
:106298008C46816881B3C36841698B4249D20269DF
:1062A800D0F818E0D45C0134D4540EF102038B42C8
:1062B8001ED80EF58074A14238BF0C469C4248D3C4
:1062C800E41A052C14D39CF80640BCF80450D454A6
:1062D80013440EF107049CF808608C429CF8078070
:1062E8005E704FEA15269D7083F80480DE7007D92A
:1062F80002205DF8048BF0BD07205DF8048BF0BD2B
:106308008E451ED2072302F80E300EF101038B4290
:106318003FBF0521D154846108203CBF5DF8048B40
:10632800F0BD40F6AC32C2F22002184603F0A4FDDC
:10633800FEDE40F6BC32C2F22002184603F09CFD95
:10634800FEDE40F69C327046C2F2200203F094FD55
:10635800FEDE40F68C321846C2F22002214604F0D6
:1063680089FBFEDE70477047F0B503AF4DF804BDFA
:1063780084B00068802906684FF00000029003D2BC
:1063880001248DF8081034E0B1F5006F09D2022419
:10639800084664F39F108DF80900C02040EA911068
:1063A80025E002200A4660F39F12B1F5803F0DD226
:1063B8008DF80A208A0960F39F12E02040EA113024
:1063C8008DF809208DF80800032412E08DF80B20C1
:1063D8008A0960F39F128DF80A200A0B042460F3DF
:1063E8009F12880C1E218DF8092061F3DF008DF8BB
:1063F800080003F0B3F90546B068B8B94FF0FF30AC
:1064080006F10C02B06002A8214600F063F90446C8
:10641800B0680130B060284603F0ABF9E0B2033849
:1064280018BF012004B05DF804BBF0BD40F6804001
:1064380040F60C43C2F2200003AA009040F2FC1080
:10644800C2F22000C2F22003102103F035FDFEDE67
:10645800F0B503AF4DF8048D88B0D0F800C002AA9B
:1064680091E8714140F6CC311346C2F2200183E82D
:10647800714101A8CDF804C003F049FD08B05DF8EA
:10648800048BF0BDF0B503AF4DF8048D82B0006801
:1064980015460E46046803F061F98046A068B8B94D
:1064A8004FF0FF3004F10C02A0603046294600F09E
:1064B80011F90546A0680130A060404603F059F97B
:1064C800E8B2033818BF012002B05DF8048BF0BDB4
:1064D80040F6804040F60C43C2F2200001AA00902A
:1064E80040F2FC10C2F22000C2F22003102103F097
:1064F800E3FCFEDEF0B503AF2DE9000748F2A05239
:10650800D1F80080C2F200021368B8EB030218BF8A
:106518000122984538BF4FF0FF32531C1CBFD2B23E
:10652800002A29D142685AB300680025D1E9019AA6
:1065380002EB4201061D8C0005E00C3C06F10C063E
:1065480005F1010518D030685045F6D156F8040C0D
:106558004946524605F095FA0028EED170680021A8
:106568008045A0F10600B0FA80F098BF01214009EB
:106578000843BDE80007F0BD0020BDE80007F0BDF6
:106588000120BDE80007F0BDF0B503AF2DE9000F0D
:1065980093B0009048F2A050C2F200008A46D1F8A9
:1065A80020900168B9EB010018BF0120894538BF68
:1065B8004FF0FF30411C1CBFC0B2002822D1009907
:1065C800486818B3096800EB4000DAE909B54FF0EC
:1065D80000080C1D860005E00C3E04F10C0408F1CF
:1065E80001080FD02068A842F6D154F8040C594687
:1065F8002A4605F046FA0028EED16068062818BF3A
:10660800814505D913B0BDE8000FF0BDDAE909B539
:10661800009840F6CC31019001A8029042F66B0038
:10662800C0F200000DAA08900CA8079042F671006D
:10663800C0F20000C2F2200106900AA8059047F2B5
:106648005960C0F20000CDF82490049009A8039086
:106658000AF12C000C90002011900320109003A840
:106668000F9004200E9040F6EC30C2F22000CDE9E5
:106678000AB50D9002A803F04AFC13B0BDE8000F5C
:10668800F0BD7047D0B502AF0C4648F268124968B1
:10669800C2F20002A3684FF0000C82E80A1040F62C
:1066A8009C41C2F22001D060104603F03FF9002857
:1066B80001BF216848F2A052C2F200021160D0BDA9
:1066C80048F27811C2F2000188600120BFF35F8FA1
:1066D80008707047F0B503AF2DE9000F81B0D2F80C
:1066E800008089460446012108F21145BFF35F8FF7
:1066F800D5E84F0FC5E8421F002AF9D1BFF35F8FD5
:1067080020B1012001B0BDE8000FF0BDD8F80004A9
:10671800BFF35F8FD8F80414BFF35F8F814204D9A9
:10672800C24311EB020B0BD179E0B0F5806F05D1B4
:10673800012974D9A1F1010B002001E0C0F5806B9B
:10674800CA46CB4538BFDA460AEB00014044BFF3DE
:106758005F8FC8F80C142146524605F094F998F852
:10676800110408F20C46BFF35F8F58B3D8F8000441
:10677800BFF35F8FBFF35F8F56E8001F46E8001234
:10678800002AF9D1BFF35F8FB0F5806FD8F80824DD
:10679800BFF35F8FD8F80C14BFF35F8F01D081422D
:1067A80003D3914205D94FF48060BFF35F8FC8F8D7
:1067B8000804BFF35F8FC8F800140020BFF35F8F91
:1067C80088F81104CB456ED204EB0A01A9EB0A0242
:1067D8000123BFF35F8FD5E84F0FC5E8443F002C76
:1067E800F9D1BFF35F8F20B1012001B0BDE8000FE0
:1067F800F0BDD8F80004BFF35F8FD8F80434BFF3B6
:106808005F8F834203D9C4431B1913D107E0B0F546
:10681800806F0DD1012B02D9013B00200AE0002036
:106828000021BFF35F8F297001B0BDE8000FF0BDF4
:10683800C0F58063934238BF1A4613184044BFF32B
:106848005F8FC8F80C3405F01EF998F81104BFF3EF
:106858005F8F40B3D8F80004BFF35F8FBFF35F8F3B
:1068680056E8001F46E80012002AF9D1BFF35F8FEF
:10687800B0F5806FD8F80824BFF35F8FD8F80C14F0
:10688800BFF35F8F01D0814203D3914205D94FF402
:106898008060BFF35F8FC8F80804BFF35F8FC8F844
:1068A80000140320BCE7032001B0BDE8000FF0BDD1
:1068B8007047C1B2032928BF00207047C1B205291B
:1068C80028BF0020704708218180002181714FF482
:1068D800FA5101607047022070470F207047B0B529
:1068E80002AF054608680C4640F480300860086826
:1068F80040F040000860222063F31340486040F2F3
:106908006850C0F20C10086240F29510C0F2B20054
:106918004862DC20C0F27A0088627D20C0F258000C
:10692800C8624B20C0F2400008632F20C0F22E003E
:106938004863886346F62010C86040F6A310886054
:106948004FF4C840C8614FF4C860886140F6C4106D
:10695800C0F6804008613F204861086820F00300C5
:1069680010430860086820F480300860C86F402130
:10697800281D05F08CF810202C606864B0BDF0B5B7
:1069880003AF2DE9000F85B0019001204FF0080CEE
:106998004FF0000E4FF0FF334FF0200900254FF065
:1069A800010A09E00CF1010C09F104094FF4005A3D
:1069B8000020BCF1210F6FD0C007F3D00AF101000D
:1069C8000AFB0CFB4FF000080CFB00F004900AF1E6
:1069D80002000CFB00F003900AF103000CFB00F02E
:1069E80002901BEB080065D0B1FBF0F00446824230
:1069F80038BF144688BF1046001B98423EBFE64683
:106A0800554603460AF10100B0F5005FCAD0049C60
:106A180014EB08044ED0B1FBF4F42646A24238BF6A
:106A2800164688BF1446A41B9C423EBFE646054650
:106A380023460130B0F5005FB4D0039C14EB080482
:106A480038D0B1FBF4F42646A24238BF164688BFB8
:106A58001446A41B9C423EBFE64605462346013029
:106A6800B0F5005F9ED0029C14EB080422D0B1FB65
:106A7800F4F4C8442646A24238BF164688BF1446D6
:106A8800A41B00F1010A9C423EBFE6460546234688
:106A9800BAF5005FA5D185E72EF003000199043807
:106AA800B0FA80F0C1E900E54009087205B0BDE818
:106AB800000FF0BD40F6205040F63C52C2F22000D4
:106AC800C2F22002192103F0C0F9FEDE4FF4407033
:106AD80070474FF07E60704740EA111043F20001A2
:106AE800C0F2FF1108407047006803E0816C00297C
:106AF80008BF7047816C29B1816C00291CBF816C6B
:106B08000029F3D170470068426D22F00302114357
:106B18004165704740F22762914238BF0A46B2F594
:106B2800487F98BF4FF44872A2F5487144F2AF739A
:106B380000688AB25A43C368A1EB124189B2490876
:106B480001EB124123F01F0242EA1111C16004E077
:106B58000168B1F1FF3FD8BF70470168002905D42B
:106B6800016800295CBF01680029F1D570477047AA
:106B780000F1340200F1500110467047F0B503AF40
:106B88002DE90007ADF5047D6D46804628464FF493
:106B9800007104F07CFF44F22C3AA5F11006C2F211
:106BA800000A0DF5007900245546DAE96001CDE9BF
:106BB800820148468194809502F0A7FD80AB01349C
:106BC8000C35202C0FCB46F8100F06F104000EC030
:106BD800EBD1694640464FF4007204F056FF0DF5BC
:106BE800047DBDE80007F0BDF0B503AF2DE9000B4B
:106BF80044F2E043C4F21F031B68C3F30B2E4FEAB1
:106C0800135CE6451FBF0124C1F88841DBB24FF48D
:106C18007A781FBF03FB08F9ACEB0E04D1F890613A
:106C280049F658651FBFCFF6FF7513FB085393FB52
:106C3800F4F3C2EA06021FBFC1F8902180E80A40B7
:106C4800C0F80C90BDE8000B18BFF0BD40F6D0505E
:106C580040F6BC52C2F22000C2F22002192103F011
:106C6800F4F8FEDE90F800C0DFE80CF004080C1021
:106C780014181C20096801F1680C1AE0096801F170
:106C88006C0C16E0096801F1700C12E0096801F15A
:106C9800740C0EE0096801F1780C0AE0096801F14A
:106CA8007C0C06E0096801F1800C02E0096801F13A
:106CB800840C40780321DCF800304000C0B28240E8
:106CC80001FA00F023EA00001043CCF800007047F6
:106CD80080B56F4600684FF400514FF480524FF072
:106CE800400C4FF4803E00E0416103699B04FBD5F2
:106CF8000369DB0401D44261F7E70369B3F1FF3F9D
:106D0800F3DC0369DB0306D403695B0648BF80BD77
:106D1800C0F814C0E9E7C0F818E0E6E70144704796
:106D28007047F0B503AF4DF804BD82B0044690F843
:106D380034000D46A8B12068E0BB206A4FF0FF314F
:106D48002160D0F8481121F0450165F3000165F391
:106D5800820165F38611C0F848112068013020606F
:106D680024E002F015FD064602F008FD02F01CFDC5
:106D78002068F8B9206A4FF0FF312160D0F8481137
:106D880021F0450165F3000165F3820165F3861181
:106D9800C0F84811206801302060F00706D102B021
:106DA8005DF804BBBDE8F04002F0EABC02B05DF853
:106DB80004BBF0BD40F6906040F68063C2F220004C
:106DC80001AA009040F2FC10C2F22000C2F2200397
:106DD800102103F071F8FEDEF0B503AF4DF804BDE5
:106DE80082B0044690F834000E4648B32068002864
:106DF80069D14FF0FF3071002060F0B241EAD01144
:106E0800A268C8B2824217D9E26901F00F0112687C
:106E1800BFF35F8F92B222FA01F1C9070CD0A169C2
:106E2800814249D9616900EB800001EB80008068EC
:106E3800016821F00051016020680130206037E0CE
:106E480002F0A6FC054602F099FC02F0ADFC2068B1
:106E5800C8BB4FF0FF3071002060F0B241EAD0119A
:106E6800A268C8B2824217D9E26901F00F0112681C
:106E7800BFF35F8F92B222FA01F1C9070CD0A16962
:106E8800814219D9616900EB800001EB80008068BC
:106E9800016821F000510160206801302060E80796
:106EA80006D102B05DF804BBBDE8F04002F068BC52
:106EB80002B05DF804BBF0BD41F29002C2F22002BC
:106EC80002F0DAFFFEDE40F6906040F68063C2F220
:106ED800200001AA009040F2FC10C2F22000C2F289
:106EE8002003102102F0E8FFFEDEF0B503AF2DE924
:106EF800000F83B006683168002940F0F580D0E9BA
:106F08000119B346D0E903854FF0FF304BF8040B65
:106F1800087898B34D78B268680040EAD511C8B2CD
:106F2800824211D9F26901F00F011268BFF35F8F35
:106F380092B222FA01F1C90706D0B169814240F242
:106F4800CC8001200521C1E0F26A0120B9F80030A7
:106F580004219A4222BFB46AD21AA242C0F0B68073
:106F6800F262294698F800000090584601F0AEFEFB
:106F7800002800F0CB8000202946A7E02878B268D6
:106F880040F0010AC0F3C01040EA4A01C8B2824288
:106F980040F28680F26901F00F011268BFF35F8F3B
:106FA80092B222FA01F1C9077AD0B169814240F25E
:106FB80094802878B26840F0020AC0F3C01040EA12
:106FC8004A01C8B282426BD9F26901F00F01126816
:106FD800BFF35F8F92B222FA01F1C90760D0B1699D
:106FE80081427AD92878B26840F0030AC0F3C01009
:106FF80040EA4A01C8B2824252D9F26901F00F014F
:107008001268BFF35F8F92B222FA01F1C90747D025
:10701800B169814261D92878B26840F0040AC0F3A6
:10702800C01040EA4A01C8B2824239D9F26901F077
:107038000F011268BFF35F8F92B222FA01F1C907FC
:107048002ED0B169814248D92878B26840F0050A43
:10705800C0F3C01040EA4A01C8B2824220D9F2699E
:1070680001F00F011268BFF35F8F92B222FA01F1AB
:10707800C90715D0B16981422FD9287840F0060A8E
:107088005846514600F0E2FC50B1287840F0070A13
:107098005846514600F0DAFC10B10120032115E0F2
:1070A800F26A0120B9F8003004219A4222BFB56A79
:1070B800D21AAA420AD3F262514698F80000009008
:1070C800584601F003FE08B30020514632680132E9
:1070D800326003B0BDE8000FF0BD41F28002C2F299
:1070E800200202F0C9FEFEDE40F6906040F68063A2
:1070F800C2F2200002AA009040F2FC10C2F2200066
:10710800C2F22003102102F0D7FEFEDE40F6FF6037
:1071180040F69C72C2F22000C2F220022B2102F03B
:1071280094FEFEDEB0B502AF82B0044690F834009B
:1071380060B1206828BB4FF0FF302060201D01F0AF
:1071480071FA20680130206002B0B0BD02F020FB67
:10715800054602F013FB02F027FB206888B94FF0C0
:10716800FF302060201D01F05DFA206801302060AA
:10717800E80704D102B0BDE8B04002F001BB02B09C
:10718800B0BD40F6906040F68063C2F2200001AACC
:10719800009040F2FC10C2F22000C2F2200310213D
:1071A80002F08AFEFEDEF0B503AF4DF804BD88B0EC
:1071B80007F82D1CA7F12D010791A7F127010691CA
:1071C800A7F12601059190F83410D7E902568DF8F9
:1071D800042001AA8DF8053007F8275C27F8266CEB
:1071E800CDE9030221B103A8FFF77FFE0C4611E0A9
:1071F80002F0CEFA064602F0C1FA02F0D5FA03A868
:10720800FFF773FE0546F0070C4608BF02F0B8FA10
:1072180005F0010000F00100214608B05DF804BB4C
:10722800F0BDF0B503AF4DF804BD82B0044690F848
:1072380034000D4670B1206870BB206A4FF0FF31F2
:107248002160690601F18071C0F85411206801308D
:1072580020601DE002F09CFA064602F08FFA02F068
:10726800A3FA2068C0B9206A4FF0FF31216069068F
:1072780001F18071C0F85411206801302060F007D6
:1072880006D102B05DF804BBBDE8F04002F078BA60
:1072980002B05DF804BBF0BD40F6906040F6806334
:1072A800C2F2200001AA009040F2FC10C2F22000B5
:1072B800C2F22003102102F0FFFDFEDEB0B502AFDE
:1072C80082B0044690F8340078B12068002801BFE5
:1072D800206AD0F840110022226001BF41F001016C
:1072E800C0F8401102B0B0BD18E002F051FA0546EE
:1072F80002F044FA02F058FA206878B9206A0022AD
:10730800D0F84011226041F00101C0F84011E807AF
:1073180016D102B0BDE8B04002F032BA40F6906033
:1073280040F68063C2F2200001AA009040F2FC10EF
:10733800C2F22000C2F22003102102F0BDFDFEDEE1
:1073480002B0B0BDB0B502AF82B0044690F83400C8
:10735800E8B32068002840F08580206A4FF0FF31AC
:107368002160D0F8B811C0F8B811D0F8BC11C0F835
:10737800BC11D0F87811C0F878110021C0F87C1140
:10738800D0F8B01159B1D0F8B01100291CBFD0F80D
:10739800B011002903D0D0F8B0110029F0D14FF076
:1073A800FF31C0F8B411D0F8B41159B1D0F8B41104
:1073B80000291CBFD0F8B411002903D0D0F8B411AB
:1073C8000029F0D120680130206002B0B0BD02F081
:1073D800DFF9054602F0D2F902F0E6F92068002844
:1073E80040D1206A4FF0FF312160D0F8B811C0F8C1
:1073F800B811D0F8BC11C0F8BC11D0F87811C0F899
:1074080078110021C0F87C11D0F8B01159B1D0F82A
:10741800B01100291CBFD0F8B011002903D0D0F852
:10742800B0110029F0D14FF0FF31C0F8B411D0F8F5
:10743800B41159B1D0F8B41100291CBFD0F8B41157
:10744800002903D0D0F8B4110029F0D12068013008
:107458002060E80704D102B0BDE8B04002F090B95E
:1074680002B0B0BD40F6906040F68063C2F22000E2
:1074780001AA009040F2FC10C2F22000C2F22003E0
:10748800102102F019FDFEDEF0B503AF2DE900076B
:1074980084B0044691F83400D7F808809A46164616
:1074A8000D46B8B32868002840F09E804FF0FF30A2
:1074B80071002860F0B241EAD011AA68C8B28242CD
:1074C8001DD9EA6901F00F011268BFF35F8F92B20C
:1074D80022FA01F1C90712D0A96981427DD9291D73
:1074E80070065FD001A852464346009600F04DFE54
:1074F8009DF8040000285ED09DF8050000E00520F6
:107508006070012029682070481C286004B0BDE81C
:107518000007F0BD02F03CF9814602F02FF902F0B5
:1075280043F9286800285FD14FF0FF3071002860C8
:10753800F0B241EAD011AA68C8B282421ED9EA69FB
:1075480001F00F011268BFF35F8F92B222FA01F1C6
:10755800C90713D0A96981423FD9291D70062ED0C9
:1075680001A852464346009600F00FFE9DF804001D
:1075780070B39DF805604FF0010802E04FF0010874
:1075880005262868013028605FEAC97008BF02F044
:10759800F7F8F0B248EA0020C4E9000A04B0BDE8F0
:1075A8000007F0BD01A85246434600F0B9FB9DF81C
:1075B80004000028A0D1029860600020A2E701A87A
:1075C8005246434600F0ACFB9DF804000028D0D199
:1075D800DDF808A04FF00008D3E741F28002C2F2BC
:1075E800200202F049FCFEDE40F6906040F680631F
:1075F800C2F2200003AA009040F2FC10C2F2200060
:10760800C2F22003102102F057FCFEDEF0B503AFF2
:107618002DE9000784B0044691F83400D7F80880B3
:107628009A4616460D46B8B32868002840F09E8052
:107638004FF0FF3071002860F0B241EAD011AA681B
:10764800C8B282421DD9EA6901F00F011268BFF37E
:107658005F8F92B222FA01F1C90712D0A96981425B
:107668007DD9291D70065FD001A852464346009671
:1076780000F0A1FC9DF8040000285ED09DF80500EC
:1076880000E005206070012029682070481C2860EF
:1076980004B0BDE80007F0BD02F07AF8814602F0B8
:1076A8006DF802F081F8286800285FD14FF0FF30AC
:1076B80071002860F0B241EAD011AA68C8B28242CB
:1076C8001ED9EA6901F00F011268BFF35F8F92B209
:1076D80022FA01F1C90713D0A96981423FD9291DAE
:1076E80070062ED001A852464346009600F063FC6F
:1076F8009DF8040070B39DF805604FF0010802E0A2
:107708004FF0010805262868013028605FEAC97033
:1077180008BF02F035F8F0B248EA0020C4E9000AD0
