:0200000460009A
:100000004643464200000156000000000101020084
:1000100000000000000000000000000000000000E0
:1000200000000000000000000000000000000000D0
:1000300000000000000000000000000000000000C0
:1000400000000000010403000000000000000000A8
:100050000000200000000000000000000000000080
:100060000000000000000000000000000000000090
:100070000000000000000000000000000000000080
:10008000EB04180A063204260000000000000000FD
:10009000050404240000000000000000000000002F
:1000A0000000000000000000000000000000000050
:1000B0000604000000000000000000000000000036
:1000C0000000000000000000000000000000000030
:1000D00020041808000000000000000000000000DC
:1000E0000000000000000000000000000000000010
:1000F0000000000000000000000000000000000000
:1001000000000000000000000000000000000000EF
:100110000204180804200000000000000000000095
:1001200000000000000000000000000000000000CF
:10013000600400000000000000000000000000005B
:1001400000000000000000000000000000000000AF
:10015000000000000000000000000000000000009F
:10016000000000000000000000000000000000008F
:10017000000000000000000000000000000000007F
:10018000000000000000000000000000000000006F
:10019000000000000000000000000000000000005F
:1001A000000000000000000000000000000000004F
:1001B000000000000000000000000000000000003F
:1001C000000100000010000001000000000000001D
:1001D000000000000000000000000000000000001F
:1001E000000000000000000000000000000000000F
:1001F00000000000000000000000000000000000FF
:10020000D4D4D4D4D4D4D4D4D4D4D4D4D4D4D4D4AE
:10100000D10020400020006000000000000000002F
:1010100020100060001000600000000000000000D0
:1010200000000060C0B5000000000000EFBEADDEB3
:10103000124880F3088812481249016000F036F81F
:10104000114812490022814201D004C0FBE7104838
:101050001049114A814202D008CA08C0FAE70F4875
:101060004FF47001026842EA01020260BFF34F8F41
:10107000BFF36F8F00F014F800DE00000040002086
:1010800008ED00E00040002000500020A085002076
:10109000B842002058440020C4B5006088ED00E04C
:1010A00040F23D0CC0F2000C6047D4D41C4840F222
:1010B000924188420CBF1B4A1B4A1C4B5360136869
:1010C00023F0800313601A481A4901BF1A480A0C1A
:1010D0008264C1F30F014164016C41F004010164B9
:1010E0001648174A824205D01649814202D008CAE2
:1010F00008C0FAE71448154A824205D014498142D3
:1011000002D008CA08C0FAE71248134A824205D042
:101110001249814202D008CA08C0FAE770470000AD
:10112000240400000080034000C00B4020C528D9E3
:1011300000C00A40AAAAFAFF00400E4000000000CA
:10114000B8220060A47C0000004000200020006065
:10115000B842002000002020609F0060641620201C
:10116000D4D4D4D4D4D4D4D4D4D4D4D4D4D4D4D43F
:10117000D4D4D4D4D4D4D4D4D4D4D4D4D4D4D4D42F
:10118000D4D4D4D4D4D4D4D4D4D4D4D4D4D4D4D41F
:10119000D4D4D4D4D4D4D4D4D4D4D4D4D4D4D4D40F
:102000000040002031100060251B0000897C00008A
:10201000251B0000251B0000251B00000000000000
:10202000000000000000000000000000251B000070
:10203000251B000000000000251B0000251B0000E0
:10204000251B0000251B0000251B0000251B000090
:10205000251B0000251B0000251B0000251B000080
:10206000251B0000251B0000251B0000251B000070
:10207000251B0000251B0000251B0000251B000060
:10208000251B000000000000000000000000000010
:10209000251B0000251B0000251B0000251B000040
:1020A000251B0000251B0000251B0000251B000030
:1020B000251B0000251B0000251B0000251B000020
:1020C000251B0000251B0000251B0000251B000010
:1020D000251B0000251B0000251B0000251B000000
:1020E000251B0000251B0000251B0000251B0000F0
:1020F000251B0000251B0000251B0000251B0000E0
:10210000251B0000251B0000251B0000251B0000CF
:1021100000000000251B000000000000251B00003F
:10212000251B0000251B0000251B0000251B0000AF
:10213000251B0000251B000000000000251B0000DF
:10214000251B0000251B0000251B0000251B00008F
:10215000251B0000251B00000000000000000000FF
:10216000251B0000251B0000251B0000251B00006F
:10217000251B0000251B0000251B0000251B00005F
:10218000251B0000251B0000251B0000251B00004F
:10219000251B0000251B0000251B0000251B00003F
:1021A000251B0000251B0000251B0000251B00002F
:1021B000251B0000251B0000251B0000251B00001F
:1021C000251B0000251B0000251B0000000000004F
:1021D000251B0000251B0000251B0000251B0000FF
:1021E000251B0000251B0000251B0000251B0000EF
:1021F000251B0000251B0000251B0000251B0000DF
:10220000251B0000F90E0000251B0000251B000007
:10221000251B0000251B0000251B0000251B0000BE
:10222000251B0000251B0000251B0000251B0000AE
:10223000251B0000251B0000251B000000000000DE
:1022400000000000251B0000251B0000251B0000CE
:10225000251B0000251B0000251B0000251B00007E
:10226000251B0000251B0000251B0000251B00006E
:10227000251B0000251B0000251B0000251B00005E
:10228000251B0000251B0000251B0000251B00004E
:10229000251B0000251B0000251B0000251B00003E
:1022A000251B0000251B0000251B0000000000006E
:0822B000251B0000251B0000A6
:1022B800B0B502AF054608460C4607F00FF928B13D
:1022C80028462146BDE8B04007F016BB204607F077
:1022D80009F928B128462146BDE8B04007F06DBB92
:1022E80028462146BDE8B04007F0C8BB80B56F4618
:1022F80000F001F8FEDE80B56F46ADF5A26DD4ADF5
:10230800284601F0BDFB0DF1140B2946584600F094
:102318002DFA0FAA05AD02ABDDF8249007CADDF847
:10232800308007C32846DDF868A000F01BFF02A92B
:10233800284600F01CFF48F204100522C4F21F00D2
:102348000123416C002562F303014164D8F80410AD
:1023580040F2E73241F00801C8F80410D9F800103B
:1023680021F00101C9F80010D9F8041062F30B013B
:10237800C9F80410D9F80010022221F4B86180319C
:10238800C9F80010D9F8001021F00101C9F80010AF
:10239800D9F8081041F02001C9F80810D9F80C1034
:1023A80021F02001C9F80C10D9F8001021F40071AF
:1023B800C9F80010D9F8001041F00201C9F800105E
:1023C800D9F8081041F00101C9F80810D9F80C1023
:1023D80021F00101C9F80C10D9F8081041F00201E8
:1023E800C9F80810D9F80C1021F00201C9F80C102E
:1023F800D9F8081041F00401C9F80810D9F80C10F0
:1024080021F00401C9F80C10016862F303010160AE
:10241800016821F01001016048F23051C4F21F0137
:102428000B60416862F303014160416821F01001CB
:102438004160C0F828344FF4E131CAF80820CAF8DE
:102448000850DAF8180040F44020CAF81800DAF802
:102458001860DAF8180020F44020CAF81800DAF8F2
:10246800280040F48040CAF82800DAF8280040F430
:102478000040CAF8280005A800F03CFCDDE9050189
:1024880041F6FF72914238BF0A46DAF810104EF250
:102498000003CEF2FD03202801EA030141EA02010C
:1024A8009DF81C2028BF2020042898BF042041EA5A
:1024B80042414FF0F85202EB006000F0F850084338
:1024C800CAF81000DAF81800B10C40F2000661F3FF
:1024D8009340CAF81800DAF81800C2F22006DAF8B1
:1024E800181021F44021CAF81810DAF82810800CC6
:1024F80041F48041CAF82810DAF8281041F4004164
:10250800CAF82810DAF8281021F08001CAF8281033
:10251800DAF8181060F393411920CAF818104FF42C
:102528008071CF9005A8CE9607F004FD324630465C
:10253800D09510F9013BB3F1FF3FD9B223DC5078B5
:1025480001F01F03DF2900F03F0019D99478F02922
:1025580004F03F0444EA801402F1030020D3007819
:1025680003F0070100F03F0040EA841040EA81418F
:10257800B1F5881F24D0101DB5F5807F06D114E071
:1025880040EA8311901CB5F5807F0ED00BF805103A
:10259800013506F1190188420246D095C9D10FE0EC
:1025A80044EA0331B5F5807FF0D140F26C024FF474
:1025B8008070C2F220024FF4807106F0D1FBFEDE7B
:1025C80048F29C5B0826C2F2000B01250024C8F8DB
:1025D8008460DAF81400DAF8281003F083FC0002AB
:1025E800F7D5B4F5807F80F0A58005A8005DCAF80E
:1025F8001C00DBF80010022909D8D098411E8C4233
:1026080026D00028C8F88C6040F08E809CE000211D
:1026180040F2C802D8910221D59140F2A801C2F235
:102628002001C2F22002D491D2A9D69147F24921C1
:10263800C0F200010023D391D1A9D795CDE9D101EA
:10264800D4A8032103F001FBD098411E8C42D8D1B5
:10265800DBF8000003281CD3002040F2F001D890DA
:102668000120D59040F2F802D790D2A8D69040F237
:102678000100C0F20000C2F22001D390D0A8D2908D
:10268800D4A8D4910321C2F220020023012503F02B
:10269800DCFADBF8000002281BD9002040F23012D7
:1026A800D8900220D59040F22010C2F220000321D9
:1026B800D490D2A8D69040F2B140C0F20000C2F245
:1026C8002002D390CEA8D290D4A80023D79503F0A7
:1026D800BCFA42F21070C9F81000D9F8000040F0B6
:1026E8000100C9F80000D9F80800C0070CD1D9F8D2
:1026F8000800C00704BFD9F808005FEAC07003D11A
:10270800D9F80800C007EED0D9F8080040F0010059
:10271800C9F80800D9F8000020F00100C9F8000045
:10272800D098C8F88C6078B1611CB1FBF0F202FB5C
:1027380010144CE740F27C022046C2F220024FF40B
:10274800807106F00DFBFEDE40F2601040F24C1284
:10275800C2F22000C2F22002392106F0EAFAFEDEB7
:102768000A46D0E90031184606F0C0BEF0B503AFFE
:102778002DE9000FABB00D46044601F134003831A5
:1027880005F1540200F0C0FAD5F8C80003F0F5FBD3
:10279800D5F82801016841F001010160D5F8280148
:1027A800016821F0020101600021C0F80811C0F899
:1027B8001811C0F82811C0F83811D5F8C080C4E93C
:1027C8000000C4E90200D8F8000020F00100C8F8B1
:1027D8000000D8F8000040F40040C8F80000D8F81D
:1027E800000000040CD5D8F80000000444BFD8F855
:1027F80000005FEA004003D5D8F800000004EED4DA
:102808003F20C8F80800D8F8000020F00100C8F8F8
:102818000000D5F8C490D9F8000020F00100C9F8EC
:102828000000D9F8000040F40040C9F80000D9F8C9
:10283800000000040CD5D9F80000000444BFD9F802
:1028480000005FEA004003D5D9F800000004EED488
:102858003F20C9F80800D9F8000020F00100C9F8A5
:102868000000D5F85C0103F089FBD5F800A0CDE99C
:10287800131040F26341DAF8480040F00100CAF84A
:102888004800DAF844000843CAF84400DAF844007B
:10289800012161F38300CAF84400DAF8440020F00B
:1028A8008000CAF84400DAF8480040F02000CAF86E
:1028B8004800DAF8440040F44040CAF84400DAF826
:1028C800440040F44470CAF84400DAF8480040F084
:1028D8008000CAF84800DAF8580000070CD0DAF887
:1028E800580000071CBFDAF858005FEA007003D0F0
:1028F800DAF858000007EED1DAF8480040F26341F0
:1029080040F02000CAF84800DAF8440020F44040BB
:10291800CAF84400DAF8440020F4447000F58870DE
:10292800CAF84400D5F804B0DBF8480040F00100CC
:10293800CBF84800DBF844000843CBF84400DBF848
:102948004400012161F38300CBF84400DBF8440024
:1029580020F08000CBF84400DBF8480040F020006D
:10296800CBF84800DBF8440040F44040CBF8440082
:10297800DBF8440040F44470CBF84400DBF848002E
:1029880040F08000CBF84800DBF8580000070CD076
:10299800DBF8580000071CBFDBF858005FEA00703E
:1029A80003D0DBF858000007EED1DBF8480040F010
:1029B8002000CBF84800DBF8440020F44040CBF876
:1029C8004400DBF8440020F4447000F58870CBF82C
:1029D8004400D5F87C01129003F089F9064603F00B
:1029E80088F91299034615A8324603F084F9D5F8F8
:1029F800681127A84FF4805203F0FCFAD5F89C0020
:102A08001290D5F8A4001190D5F8A8001090D5F828
:102A1800AC000F90D5F884010E90D5F890010D9078
:102A2800D5F89801D5E91712099004F58E7003F0CE
:102A3800ABFAD5F830010F22D5E942CE00F59071F6
:102A4800216700F1C001E16600F16001A166696BD0
:102A58000C91A96B0B91696D0A91D5F880100491BE
:102A6800D5F884100291D5F888100191D5F8E010B6
:102A78000891D5F8E8100791D5F8FC100691D5F81B
:102A880014110591D5F8041103914FF47041D5F84C
:102A98001C316066A0F88C11A0F88E212066D5F84C
:102AA800340100F59076C4F8846000F1C006C4F8DB
:102AB8008060A0F88C11C4E91D00A0F88E21603058
:102AC800E067D5F8380100F59076C4F8986000F111
:102AD800C006C4F89460A0F88C11C4E92200A0F8DC
:102AE8008E216030C4F89000D5F83C0100F590754F
:102AF800C4F8AC5000F1C005C4F8A850A0F88C1177
:102B080000F16001C4F8A41004F1B801C4E9270079
:102B1800A0F88E2148221398C4F81C031498C4F80E
:102B28002003099820631298A0611198E061109819
:102B380020620F9860620E98A0620D98E062049877
:102B4800C4F8B0000298C4F8B4000198C4E9048934
:102B580081E8010C15A90398C4E916C3C4E914E077
:102B68000598E0640698A064079860640898206453
:102B78000A98E0630B98A0630C98606304F1C400A2
:102B880007F0D6F927AB04F5867C0FCB8CE80F004D
:102B98002BB0BDE8000FF0BD80B56F468AB001903C
:102BA80044F2B820C2F200000021D0E84F2FC0E85C
:102BB800431F002BF9D10AB348F29C50C2F200001F
:102BC8000068D8B1002040F29C11069001200390C3
:102BD80040F21022059008A8049040F63F20C0F269
:102BE8000000C2F22001099001A8089002A80291F1
:102BF800C2F220020121002303F027F800F001F8B7
:102C0800FEDE80B56F4648F248100521C4F21F0069
:102C18004FF2800301603821C0F8F0114CF26C00CB
:102C2800C4F20A004DF2801E01684AF2003CC0F26C
:102C3800FA23C0F6F00E21F0080101604CF284007E
:102C4800C1F2E11CC4F21B0050F8801C41F00801DD
:102C580040F8801C082101601A46013AFDD1416004
:102C68001A46013AFDD101601A46013AFDD1416088
:102C78001A46013AFDD101601A46013AFDD1416078
:102C88001A46013AFDD101607246013AFDD1416010
:102C98007246013AFDD101607246013AFDD14160A8
:102CA8007246013AFDD101607246013AFDD1416098
:102CB8007246013AFDD101601A46013AFDD14160E0
:102CC8001A46013AFDD101601A46013AFDD1416028
:102CD8001A46013AFDD101601A46013AFDD1416018
:102CE8001A46013AFDD16246013AFDD1B3E70068C0
:102CF80005F091BF80B56F460A4641F20021C0F247
:102D08007A0103F048F880BDF0B503AF4DF804BD73
:102D18000E4600211546044603F0FBF8284640F20B
:102D2800E24103F0FDF8304603F0D8F940F28C2573
:102D38002146C2F2200500222846366803F098F999
:102D4800A81C2146002203F093F9281D21460022E1
:102D580003F08EF9A81D2146002203F089F905F138
:102D680008002146002203F083F905F10A002146F4
:102D7800002203F07DF905F10C002146002203F042
:102D880077F905F10E002146002203F071F905F1EB
:102D980010002146002203F06BF905F112002146CC
:102DA800002203F065F905F114002146002203F022
:102DB8005FF905F116002146002203F059F905F1E3
:102DC80018002146002203F053F905F11A002146A4
:102DD800002203F04DF905F11C002146002203F002
:102DE80047F905F11E002146002203F041F9206849
:102DF8004169890107D5416921F000714161204687
:102E080003F078F820684169012221F0605141619E
:102E18002068816962F30D318161204603F06AF808
:102E28002068416941F000714161204603F062F871
:102E38004FF480503060642030604FF40050706070
:102E48003068002809D4306800285CBF3068002842
:102E580003D43068B0F1FF3FF2DC20680122016939
:102E680062F302010161204603F044F820684169D9
:102E780021F4E0514161204603F03CF82068816963
:102E880041F4402181612068416921F0007141616C
:102E9800204603F02FF8206840F29405C2F220057E
:102EA8000022416941F4407141612846214603F0FE
:102EB800DFF8A81C2146002203F0DAF8281D214675
:102EC800002203F0D5F8A81D2146002203F0D0F80F
:102ED8002068022640F28C050022C2F22005816B90
:102EE80066F3D84181632068816B41F48021816356
:102EF8002846214603F0BCF8A81C2146002203F00E
:102F0800B7F8281D2146002203F0B2F8A81D214673
:102F1800002203F0ADF8206840F2CC250322C2F26B
:102F28002005816966F3051181612068816962F372
:102F38009C61816128462146002203F099F8A81C6B
:102F48002146002203F094F8281D2146002203F0B0
:102F58008FF8A81D2146002203F08AF805F1080021
:102F68002146002203F084F82068172240F2390530
:102F7800C2F22005C16962F30501C161206800221F
:102F8800C16941F04001C1612846214603F070F84B
:102F9800A81C2146002203F06BF8281D21460022B8
:102FA80003F066F8A81D2146002203F061F805F138
:102FB80008002146002203F05BF805F10A002146CB
:102FC800002203F055F805F10C002146002203F019
:102FD8004FF805F10E002146002203F049F8206859
:102FE80040F2D625C2F220050322416A41F0400191
:102FF80041622068416A66F305014162284621461C
:1030080003F036F8A81C2146032203F031F8281DE6
:103018002146032203F02CF8A81D2146032203F0C1
:1030280027F805F108002146032203F021F805F1ED
:103038000A002146032203F01BF805F10C00214683
:10304800032203F015F805F10E002146032203F0D0
:103058000FF805F110002146032203F009F805F1E5
:1030680012002146032203F003F805F1140021465B
:10307800032202F0FDFF05F116002146032202F0AB
:10308800F7FF05F118002146032202F0F1FF05F1D0
:103098001A002146032202F0EBFF05F11C0021462D
:1030A800032202F0E5FF05F11E002146032202F08B
:1030B800DFFF05F120002146032202F0D9FF05F1C8
:1030C80022002146032202F0D3FF05F12400214605
:1030D800032202F0CDFF05F126002146032202F06B
:1030E800C7FF05F128002146032202F0C1FF05F1C0
:1030F8002A002146032202F0BBFF05F12C002146DD
:10310800032202F0B5FF05F12E002146032202F04A
:10311800AFFF05F130002146032202F0A9FF05F1B7
:1031280032002146032202F0A3FF05F134002146B4
:10313800032202F09DFF05F136002146032202F02A
:1031480097FF05F138002146032202F091FF05F1AF
:103158003A00214603225DF804BBBDE8F04002F0C6
:1031680087BF704780B56F4600F03EFE80BD80B5D2
:103178006F464EF20C1C4FF4003ECEF2000C44F2A7
:10318800BC22CCF880E0C2F20002BFF35F8FD0E926
:1031980000318068C2E900319060BFF35F8FCCF8DE
:1031A80000E1CCF800E080BDF0B503AF2DE9000BDD
:1031B8008AB045F20006C2F20006306828B10AB0AB
:1031C800BDE8000BBDE8F040004749F200000021CF
:1031D800C4F20D00C4F22E01039044F2BC20C2F2E6
:1031E8000000CDE901110068062809D104A801A949
:1031F800012200F077F8049800285DD1059D1BE0B6
:1032080000F0D4FE00F0D1FE049048F28410C2F21F
:103218000000012200F21240BFF35F8FD0E84F1F79
:10322800C0E8432F002BF9D1BFF35F8F49B10DF1EF
:10323800040999E83002BCBB35600AB0BDE8000B50
:10324800F0BD48F284154FF48061C2F200052846AB
:1032580006F070FE05F086FC44F2BC218046C2F2FE
:103268000001284602F06CFB20B10DF1040999E831
:10327800300214E001AA07AB07CA07C348F2841258
:1032880007A804ABC2F20002012100F07AF841F667
:103298004F30C0F2000002F069FC054600244046A9
:1032A80005F06BFC002CC7D007A880E8300240F27C
:1032B800C030C2F2200007E004AA07AB07CA07C360
:1032C80040F2B030C2F2200040F24033009040F2A9
:1032D800143007AAC2F22000C2F220032B2105F005
:1032E8005FFDFEDEF0B503AF4DF8048D84B01546E2
:1032F8000E46044600F05AFE00F057FE009048F2D1
:103308008410C2F20000012200F21240BFF35F8F66
:10331800D0E84F1FC0E8432F002BF9D1BFF35F8FD0
:1033280031B196E8070007C404B05DF8048BF0BD1E
:1033380048F284184FF48061C2F20008404606F053
:10334800F9FD96E8070001AB07C305F00BFC06463C
:10335800404602F013FB01A86B462946424600F09E
:1033680010F841F64F30C0F2000002F0FFFB0021D8
:10337800C4E90010304605F000FC04B05DF8048B89
:10338800F0BDF0B503AF2DE9000FC9B0064648F20D
:103398003410C2F200001D468A4602608DF80710FC
:1033A80005F0FDFB46F20004D6F80080B668C2F2CC
:1033B800000441F238102118BFF35F8F51E8000F65
:1033C80040F0004241E80023002BF7D1B0F1FF3F65
:1033D800BFF35F8F40F3E78045F205000122C2F298
:1033E8000000BFF35F8F00F5C070D0E84F1FC0E842
:1033F800432F002BF9D100950029BFF35F8F40F0D0
:10340800DE8045F205004FF4C071C2F2000002F000
:103418008BFECDE9460141F23810204404F586516F
:10342800439006200DF1F40BCDE9400104F58051DD
:103438004FF000093F9101214290CDE93D405846A7
:10344800CDE94486ADF8209103F0C6FCBBE87E00C8
:103458000DF1080808F104007EC09BE87E007EC0DC
:10346800012051468DF83C004046CDF8089002F006
:103478005EFE00983DA93F900DF107003E903CA8E4
:103488003D904046CDF8F09000F0A5F8414648F24E
:10349800000A5CC9C2F2000A0AF10C005CC07CC9CF
:1034A8007CC091E87C0051467CC04FF4806040228B
:1034B800AAF804004046CAF84490CAF80890CAF826
:1034C800009000F016F9B8E87E0048F23810C2F211
:1034D80000007EC098E87E007EC0322002ACCDF8A5
:1034E80016010220C4F200003DAACDF812011020F6
:1034F800ADF8100145F62400C2F2DD705146439044
:103508000920409040F2D030C2F22000CDF804915A
:103518003F902046CDF8F49000F0E2F9399D8121E2
:10352800284602F05FFE2846012102F05BFE28468D
:10353800822102F057FE2846022102F053FE284657
:10354800832102F04FFE2846032102F04BFE284655
:10355800842102F047FE2846042102F043FE284653
:10356800852102F03FFE2846052102F03BFE284651
:10357800862102F037FE2846062102F033FE28464F
:10358800872102F02FFE2846072102F02BFE48F281
:1035980048002146C2F20000E82206F0C9FC49B002
:1035A800BDE8000FF0BD40F2546040F2E462C2F2A0
:1035B8002000C2F220021F2105F010FBFEDE40F2BF
:1035C8006C2040F2D462C2F22000C2F22002202114
:1035D80005F004FBFEDEF0B503AF2DE9000784B06B
:1035E800044690F83400D1E9005A8E6868B3206820
:1035F80000286BD14FF0FF30206004F120002968CB
:1036080004F0E7FDD6F8008001AE9AF80050CDE945
:103618000101304604F0F7FD304604F03BFE002D72
:1036280018BF01253046294604F040FE30460121E6
:1036380004F001FE3046414604F00BFE304604F02B
:10364800EEFD2068013020603CE005F0A5FA8046D8
:1036580005F098FA05F0A3FA2068B8BB4FF0FF30E0
:10366800206004F12000296804F0B3FD01ADD6F80C
:1036780000909AF80060CDE90101284604F0C3FDE6
:10368800284604F007FE002E18BF012628463146BA
:1036980004F00CFE2846012104F0CDFD28464946D9
:1036A80004F0D7FD284604F0BAFD206801302060F8
:1036B8005FEAC87006D104B0BDE80007BDE8F04075
:1036C80005F062BA04B0BDE80007F0BD40F248401A
:1036D80040F2DC33C2F2200003AA009040F2290035
:1036E800C2F22000C2F22003102105F059FBFEDED1
:1036F8007047F0B503AF2DE9000F87B0044608689E
:10370800002840F0A78091F804B0002008600E4619
:103718000BF1010008718868002840F096804FF08E
:10372800FF3006F10C059146B060FF200821032206
:103738000290CDE9002128468021002202F039FFBD
:103748008A46B168C00701F10101B16040F0948078
:10375800306800287ED196F8048000200029306067
:1037680008F10102327170D14FF0FF310022B160CF
:103778000221CDE9001900210290284602F019FF24
:10378800B268C00702F10102B26040F08A80002AE4
:1037980004915AD14FF0FF300021B0600220CDE9EA
:1037A8000009284602918021002202F002FFC0078A
:1037B80001BFB0680130B06084F82CB001BF4FF48D
:1037C8000070A4F8270084F82610A4F8249001BFFC
:1037D80006F14401216284F82D8040F2FF3201BFD6
:1037E800A4F80F2084F80EA00822A28101BFA160CE
:1037F800A4F81B000498A07601BFA4F81890616192
:103808000020E08501BFA071A2804FF4FA5020602B
:1038180002BF07B0BDE8000FF0BDB06840F26843D2
:1038280007F8211CC2F220030130B06040F2D440F6
:10383800A7F12102C2F22000009040F25840C2F2E3
:1038480020000F2105F0ACFAFEDE40F27450C2F2FF
:10385800200003E040F2B450C2F2200040F20853C6
:10386800009040F2290006AAC2F22000C2F220030A
:10387800102105F095FAFEDE40F2E44040F268437C
:10388800C2F22000A7F12302009040F25840C2F291
:103898002000C2F2200307F823AC0F2105F080FABC
:1038A800FEDE40F2D44040F26843C2F2200007F83E
:1038B800221C009040F25840C2F22000C2F22003BD
:1038C800A7F122020F2105F06BFAFEDE70470846C9
:1038D80040F2F441C2F22001122205F0F9BD70470E
:1038E800F0B503AF2DE9000F85B0044688680028BD
:1038F8007AD192F821A04FF0FF3001F10C058860D1
:10390800002090460E46CDE9000A02902846002184
:103918000122002302F04DFE8946B168C00701F17B
:103928000101B16065D100295ED14FF0FF304FF041
:10393800000BB0602846802101228023CDE900BA1F
:10394800CDF808B002F035FEC00764D1B068A177A1
:1039580031680130A4F81FB006F1440B0029B060AB
:10396800A4F81CA0C4F818B06DD14FF0FF3100289E
:1039780031606DD12846B16002F0A6FEB068013012
:10398800B0606AD34FF0FF308021B06004F12400AA
:10399800BFF35F8F7564BFF35F8F06F0CBFA4FF00C
:1039A800000CC4F8DC50A4F813C004F1B40184F886
:1039B8001290A4F810A0C4F80CB0B8E86D006DC15E
:1039C80098E86D006DC1042084F8E2C0C4E92BCCEE
:1039D800C4F8A4C0A4F800C0A4F8E300A4F8E0C0A8
:1039E80005B0BDE8000FF0BD40F27450C2F22000EF
:1039F80037E040F2346040F2C453C2F22000A7F12D
:103A08002202009040F22C20C2F22000C2F22003D1
:103A180007F8229C13E0B06840F2C45307F8211C51
:103A2800C2F220030130B06040F24460A7F12102E5
:103A3800C2F22000009040F22C20C2F22000202187
:103A480005F0AEF9FEDE40F28450C2F2200008E034
:103A580040F29450C2F2200003E040F2A450C2F2B7
:103A6800200040F20853009040F2290004AAC2F254
:103A78002000C2F22003102105F092F9FEDE704703
:103A8800F0B503AF2DE9000F81B045F204014FF006
:103A9800010CC2F20001BFF35F8FD1E84F2FC1E8DC
:103AA80043CF002BF9D1BFF35F8F002A01BF48F243
:103AB8000001C4F20D010022C4F22F0201BF02F579
:103AC800542C02F5502E02F54C28A1F5004401BFF4
:103AD800A1F5003501F5F61601F5F413C0E96836CD
:103AE80001BFC0E96A54C0E96C8EC0E96EC101F536
:103AF800005E01BF01F5805640F2040CC4F22E0CA2
:103B080001F5021401BF0CF5FE7501F5004300F53F
:103B1800C07888E8380001BF00F5C67383E8121042
:103B2800C0E9666EA1F5404C01BF01F5881E01F59C
:103B3800861801F5841401F5821301BF01F50036DA
:103B480002F51025C0E9585600F5B47501BF85E89F
:103B58001A41C0F87CC1A1F5804C02F51C2E01BFAA
:103B680002F5182802F51424A1F5E03301F52826FA
:103B780001BF01F5EE15C0E9505600F5A47585E8BA
:103B8800184101BFC0E9562C02F5782802F57429BE
:103B980002F5702401BF02F56C234CF2000CC4F24C
:103BA800070C0CF5004601BF01F5E03E01F58E1546
:103BB800C0E9485EC0E94A6101BF00F5987585E82B
:103BC8001802C0F83C8101F5482801BF01F54429D5
:103BD80001F5402A01F53C2B01F5382301BF01F519
:103BE800342401F5302501F52C26C0E9406501BFD4
:103BF800C0E94243C0E944BAC0E9469802F5302812
:103C080001BF02F52C2902F5282A02F5242B02F51A
:103C1800861301BF02F5841402F5821502F5801699
:103C2800C0E9386501BFC0E93A43C0E93CBAC0E918
:103C38003E9801F5F01801BF01F59219A1F5503A27
:103C4800A1F5403BA1F5303301BF01F5901401F512
:103C58008C1501F58A16C0E9306501BFC0E9324309
:103C6800C0E934BAC0E9369844F2000B01BFC4F287
:103C7800002B0BF500490BF5804A4FF0844801BF33
:103C880001F56C2601F5682401F56425A1F5C0331A
:103C980001BFC0E9283500F1A80383E85009C0E94D
:103CA8002EA901BF01F5602801F5E61901F5E81A0A
:103CB800A1F5203601BF0BF5E03301F5582401F5D5
:103CC8005425C0E9205401BF00F1880484E8480461
:103CD800C0E9259EC0F89C8001BFA1F5103E01F502
:103CE800FE1801F5001902F5642A01BF02F56023E8
:103CF80002F55C2602F5582501F5A03401BF00F154
:103D0800600B8BE87000C0E91B3AC0E91D9801BF41
:103D1800C0F87CE001F5803E02F540480CF580498A
:103D280001BF01F5804A01F5F21344F20806C4F216
:103D3800090601BF06F1100506F10804C0E9106480
:103D4800C0E9125301BFC0E914A9C0E9168E0CF5E9
:103D5800C03E01F5103801BF01F5801901F57C243A
:103D680001F5782302F57C2601BF02F54825C0E954
:103D7800085600F1280585E8180201BFC0E90D8141
:103D8800C0F83CE002F5442E02F50C2601BF01F50F
:103D9800D21501F5242402F54022A1F5803301BF94
:103DA800A1F5A031C0E90013C0E9022C103001BF11
:103DB80080E8704001B0BDE8000FF0BD40F2F4604B
:103DC80040F28872C2F22000C2F22002352104F0CB
:103DD800B0FFFEDEFEE7006805F008B80A46D0E945
:103DE8000031184605F082BB40F298720021C2F2F9
:103DF80020020523C0E90032816070477047F0B5A2
:103E080003AF2DE9000B84B040F2987048F23018E7
:103E180048F24805C2F220000390C2F2000808F1F7
:103E28000800C2F2000502A902902846012200F00B
:103E3800DFFA04460021D5F8DC00029102A901F05E
:103E48009DF8064695F8E21098F80000022937D147
:103E580068B9D5F8DC0002F06BFB0021D5F8DC006E
:103E6800029102A901F057F9012088F80000D8F85A
:103E78001C000168BFF35F8F002900F08A800020D2
:103E880098F8222040F2CC73009002A8C2F22003D6
:103E9800344302F0C1FD7CB1D8F804000122BFF31D
:103EA8005F8F00F58264D4E84F1FC4E8432F002BCE
:103EB800F9D1BFF35F8F91B104B0BDE8000BF0BD3D
:103EC80030B10021D5F8DC00029102A901F0CEF84A
:103ED800002088F8000004B0BDE8000BF0BDD0F861
:103EE8000014BFF35F8FD0F80824BFF35F8FD0F8BA
:103EF800043400F20445BFF35F8F934205D1994221
:103F08003EBFBFF35F8F00232B60994228BF0A464C
:103F18009A4236D0D8F828100968BFF35F8FC1B32A
:103F2800A2EB030998F82E20034402A84E46B9F1E3
:103F3800400F28BF4026009602F0ACFC9DF8080010
:103F480068B12078BFF35F8F0028B5D0BFF35F8FCB
:103F580055E8000F45E800010029F9D111E0039860
:103F68002178BFF35F8F0029A6D0814538BF484626
:103F7800BFF35F8F55E8001F014445E80012002A8F
:103F8800F8D10020BFF35F8F207004B0BDE8000BAC
:103F9800F0BD40F6F00040F67412C2F22000C2F202
:103FA8002002222104F0C5FEFEDE70474FF47A603D
:103FB8007047F0B503AF2DE9000784B01D46904661
:103FC80089468246D6000C4686B1F4E802012A46A4
:103FD8004B6A51469847BAF80000083E00F00D00B9
:103FE8000428F1D004B0BDE80007F0BD687A20B31A
:103FF800BAF8000000F00D000428F3D1DAF80C003C
:104008000921AAF800100068BFF35F8F00286CD060
:104018009AF81210012202F0C1FDDAF818000068BF
:10402800BFF35F8F002860D09AF81E10012202F0BB
:10403800B5FD04B0BDE80007F0BD297AA8790229CA
:1040480016D0012923D00029D2D198B3062843D00D
:104058000828CDD19AF8E20001210391A7F12201A5
:1040680002380291B0FA80F0400907F8220C2EE0DD
:104078000028BDD16988DAF8DC0001F08F0102F070
:104088000EFE02210391A7F1220102911DE050B119
:104098000A28ADD101200390A7F122000290002048
:1040A80007F8220C13E002200390A7F122000290E7
:1040B80000200AE09AF8E00002229AF8E110039240
:1040C800A7F12202029241EA400027F8220C02A935
:1040D800504600F081FD8BE70AF1B400494642469C
:1040E8005346009500F0D8F882E740F6F00040F615
:1040F8007412C2F22000C2F22002222104F019FE3A
:10410800FEDED4D4F0B503AF4DF8048D84B01D465F
:104118000E468046D4006CB1F6E802012A460B6AC6
:1041280041469847B8F80000083C00F00D00042804
:10413800F1D09EE0687A30B1B8F8000000F00D00C8
:10414800042864D095E02A7AA8792988022A31D0EF
:10415800012A11D0002A5AD10138082857D8DFE897
:1041680000F00556425648565656510001294ED180
:10417800002088F8E00086E00B2808BF002946D117
:10418800B8F800000628D7D1D8F818000168BFF39E
:104198005F8F002961D098F81E20002040F6580350
:1041A800009002A8C2F2200302F074FB0820A8F8CD
:1041B8000000C1E703280CD0012808BF002926D138
:1041C80069880022D8F8DC0001F08F0102F0E6FCD3
:1041D80059E0E1B969880122D8F8DC0001F08F01C3
:1041E80002F0DCFC4FE0012911D1012088F8E00041
:1041F80049E0481E80B27F2809D2D8F8DC0002F0D6
:1042080016FA3DE0C9B3012901D1022039E0B8F816
:10421800000000F00D0004282BD1D8F80C0009216B
:10422800A8F800100068BFF35F8FB0B198F81210BB
:10423800012202F0B3FCD8F818000068BFF35F8FC2
:1042480000281FBF98F81E10012204B05DF8048BE7
:104258001CBFBDE8F04002F0A1BC40F6F00040F6FB
:104268007412C2F22000C2F22002222104F061FD81
:10427800FEDE04B05DF8048BF0BD98F8E20030B1C2
:10428800012088F8E200404600F0EBF954E7404688
:1042980000F01DFC50E7D4D4F0B503AF2DE9000BB6
:1042A80088B00646B86814460D46984601960189B6
:1042B80002684068ADF81010CDE9022002A804F0A9
:1042C8003AF84FF0FF3252FA80F00E2800F261807F
:1042D800DFE800F008101C5F5F5F5F5F5F5F5F5F94
:1042E8005F5F2A0001A9404600F01DFC08B0BDE848
:1042F800000BF0BD01A805A905904046CDE906547C
:1043080000F0F1FC08B0BDE8000BF0BDC8B203280E
:1043180013D8DFE800F002242838404600F085FC76
:1043280008B0BDE8000BF0BD40462946224600F023
:10433800ADFD08B0BDE8000BF0BD084604F0EAFB8F
:10434800BDF80A608146E4001CB3F5E80201324674
:104358004B6949469847083C0028F5D009E0311DCB
:10436800306828B915E006F10C010836306880B1CC
:104378000968CDE9050105A9404600F02CFD08B003
:10438800BDE8000BF0BD06F11401103630680028B6
:10439800EED1B8F8000000F00D000428A6D1D8F836
:1043A8000C000921A8F800100068BFF35F8F98B1CE
:1043B80098F81210012202F0F1FBD8F818000068F2
:1043C800BFF35F8F40B198F81E10012202F0E6FBA0
:1043D80008B0BDE8000BF0BD40F6F00040F67412DE
:1043E800C2F22000C2F22002222104F0A2FCFEDE6A
:1043F800F0B503AF2DE9000F8DB0D0F8DC400646CC
:1044080005A888469246214602F09BFC96F8E200F1
:10441800BDF81450032816D1002D4FF0000018BF26
:10442800032D03D10DB0BDE8000FF0BD204602F00A
:1044380087FC96F8E300042800F00781042186F839
:10444800E20086F8E310DFE805F00308274A0300D6
:1044580000200DB0BDE8000FF0BDD6F8DC0002F07A
:1044680077F900204FF48061BAF1000F86F8E40074
:1044780086F8E000A6F8E2103080E9D008EBCA041C
:10448800A8F1080555F8080F69688969884705F192
:104498000800A042F6D1DBE7BDF81600BDF81810F9
:1044A800BDF81A200290084340EA020904910392D9
:1044B8005FEAC97052D00498C0071CBF304600F0AC
:1044C8009FFA0398C0071AD10298C00720D1042088
:1044D8008DF825009DF82500042821D13CE0D6F868
:1044E800DC0002F02DFC96F8E20086F8E3000320D9
:1044F80086F8E20000200DB0BDE8000FF0BD07A867
:10450800314600F06FF99DF82500042808D123E012
:1045180007A8314600F0CEF89DF8250004281BD0E6
:104528009DF8230000287AD0802815D1DDE90701FD
:104538000AABBDF82420CDE90A013046ADF8302099
:1045480041465246FFF735FD29F00109B9F1000F40
:10455800CDE9008A07D14DE029F00109B9F1000F32
:10456800CDE9008A46D00199002953D00098012648
:104578004FF0020B00EBC108A0F1080503981BEAF5
:10458800000F0BD02C4654F8080F61688A6A314630
:10459800904704F108004045F5D10EE002981BEA67
:1045A800000F0AD02C4654F8080F6168CA6A3146D1
:1045B800904704F108004045F5D104981BEA000F24
:1045C8000DD066F07F04AA465AF8080FDAF80410EE
:1045D8000A6B214690470AF108004045F4D129EAC0
:1045E8000B095FEA094005D0701C0F2E4FEA4B0BF0
:1045F8000646C3D3019969B1009800EBC104A0F144
:10460800080555F8080F6968C969884705F1080061
:10461800A042F6D101200DB0BDE8000FF0BDDDE9E4
:1046280007010AABBDF82420CDE90A013046ADF8F0
:10463800302041465246FFF765FD29F00109B9F1DE
:10464800000FCDE9008A8ED1D4E740F2CC7040F655
:104658004802C2F22000C2F220021C2104F0BEFA75
:10466800FEDED0B502AF84B004460088062812D119
:10467800A0690168BFF35F8F81B10020A27F40F677
:104688005803009002A8C2F2200302F003F90820A0
:10469800208004B0D0BD072004B0D0BD40F6F000A3
:1046A80040F67412C2F22000C2F22002222104F065
:1046B80040FBFEDEF0B503AF4DF804BD86B00446FE
:1046C80008880D46411E032928D3052826D0072827
:1046D80036D1D5F8AC00D5F8063069898128D5F8E7
:1046E8000220ADF80C10CDE9012373D2E9680968FE
:1046F800BFF35F8F002961D0C0F18003AA7C2844F2
:10470800009300F1240304A802F086F99DF8100034
:1047180000283ED09DF8110008BB34E0E868016825
:10472800BFF35F8F002949D0AA7C40F6580304A83C
:104738000026C2F22003009602F06EF92E8022E0D5
:10474800E8680168BFF35F8FC1B30020AA7C40F618
:104758005803009004A8C2F2200302F05DF9E8684B
:10476800092129800068BFF35F8F38B3A97C012233
:1047780002F014FAA8690068BFF35F8FF0B1A97F4F
:10478800012202F00BFA0420607206B05DF804BB47
:10479800F0BD0598D5E92B120844C5F8AC00904245
:1047A800F1D3DDE901010623BDF80C202B80206040
:1047B8006160228106B05DF804BBF0BD40F6F000F0
:1047C80040F67412C2F22000C2F22002222104F044
:1047D800B0FAFEDE40F6C0028021C2F2200204F0E8
:1047E800E6FEFEDEF0B503AF2DE9000F85B0044606
:1047F800C8680D460168BFF35F8F002900F08B8001
:1048080005F124068020AA7C009002A8334602F015
:1048180003F99DF8080018B19DF8090060B921E076
:10482800039A812A80F0838002A8314603F065FD4F
:104838009DF8110004281BD1E86809212980006827
:10484800BFF35F8F002866D0A97C012202F0A6F989
:10485800A8690068BFF35F8F00285CD0A97F012298
:1048680002F09CF90420607205B0BDE8000FF0BDAD
:10487800E868BDF810A09DF80F609DF80E90BDF88F
:104888000CB0DDF808800068BFF35F8F002842D0C5
:10489800A97C002202F082F9BEB10420A5F80AA082
:1048A8006E7285F80890A5F806B0C5F802802880D1
:1048B800A4F808A0E67184F80690A4F804B0C4F837
:1048C800008005B0BDE8000FF0BDBBF1000F11D0AE
:1048D800BBF1800FB0D80020A5F80AA0C5E92B0BC2
:1048E8006872072085F80890A5F806B0C5F8028018
:1048F8002880B7E70620A4F808A028800020C5F87B
:10490800B000E07184F80690A080C4F8008005B07B
:10491800BDE8000FF0BD40F6F00040F67412C2F298
:104928002000C2F22002222104F003FAFEDE40F643
:10493800D0031046C2F2200380211A4604F057FE25
:10494800FEDEB0B502AF84B00446D0E92951D0F8F4
:10495800AC00D4F8B0C0002DA38BAE46ACEB00027F
:1049680008BF04F1240E9A4238BF1346002D03EB0A
:10497800000C08BF80219C4525D38C452BD8A16904
:104988000968BFF35F8F71B3A27F00930EEB00033A
:1049980002A801F07FFF9DF8080008B104B0B0BD7F
:1049A8000398D4E92B120144C4F8AC109142F5D312
:1049B8000021A28BC4F8A4100321904208BF022151
:1049C800218004B0B0BD40F6E0026146C2F2200288
:1049D80004F02DFEFEDE40F6E0026046C2F2200240
:1049E80004F005FEFEDE40F6F00040F67412C2F256
:1049F8002000C2F22002222104F09BF9FEDED4D46A
:104A0800B0B502AF84B0044600880138072834D80E
:104A1800DFE800F0040B24333333334B2046FFF731
:104A280090FF0025284604B0B0BDA0690168BFF317
:104A38005F8F00293FD0A27F40F6580302A80025C7
:104A4800C2F22003009501F025FF9DF80800002818
:104A580004BF03202080284604B0B0BDE068006889
:104A6800BFF35F8F38B3A17C0022002502F096F8CF
:104A780005202080284604B0B0BDE06809212180C7
:104A88000068BFF35F8FB0B1A17C012202F086F805
:104A9800A0690068BFF35F8F68B1A17F012202F0AF
:104AA8007DF80025284604B0B0BD002001252080EF
:104AB800284604B0B0BD40F6F00040F67412C2F2C9
:104AC8002000C2F22002222104F033F9FEDED0B524
:104AD80002AF0446008800F00D00042815D1E068F4
:104AE800092121800068BFF35F8F80B1A17C01227A
:104AF80002F054F8A0690068BFF35F8F38B1A17F56
:104B0800012202F04BF80820D0BD0720D0BD40F6A6
:104B1800F00040F67412C2F22000C2F220022221F4
:104B280004F007F9FEDEF0B503AF4DF8048D88B048
:104B38000446008804282ED10D686E4604F124012D
:104B480030468022B4F8068003F0F8FB3046294648
:104B580003F04CFCC0B2082819D1684603F0F7FBF3
:104B680080281DD9E068092121800068BFF35F8F84
:104B780030B3A17C012202F011F8A0690068BFF3EC
:104B88005F8FE8B1A17F012202F008F8022008B087
:104B98005DF8048BF0BD072008B05DF8048BF0BD0C
:104BA800404538BF80460120002120802046C4E9C6
:104BB8002B18FFF7C6FE082008B05DF8048BF0BD7F
:104BC80040F6F00040F67412C2F22000C2F2200251
:104BD800222104F0AEF8FEDEF0B503AF4DF804BDB7
:104BE80004460088042806D14D68802D07D9022084
:104BF8005DF804BBF0BD07205DF804BBF0BD096893
:104C080004F124002A46E68805F090F90020B54210
:104C180038BF2E46C4E92B06012020802046FFF726
:104C280090FE08205DF804BBF0BDF0B503AF4DF869
:104C380004BD8AB004460088042833D101AD04F1CC
:104C480024018022E688284603F078FB40F20940D8
:104C5800A7F1120227F8120C28460321022303F0B9
:104C680078FBC0B2082819D101A803F070FB80288E
:104C78001DD9E068092121800068BFF35F8F30B338
:104C8800A17C012201F08AFFA0690068BFF35F8F51
:104C9800E8B1A17F012201F081FF02200AB05DF88E
:104CA80004BBF0BD07200AB05DF804BBF0BDB042FC
:104CB80038BF06460120002120802046C4E92B1673
:104CC800FFF73FFE08200AB05DF804BBF0BD40F6D0
:104CD800F00040F67412C2F22000C2F22002222133
:104CE80004F027F8FEDEF0B503AF2DE9000788B021
:104CF8008246008804284CD191E850026D460AF19A
:104D0800240128468022BAF8068003F017FB2168A0
:104D1800284603F005FCC0B2082836D1B9F1000FC7
:104D280010D006EBC9046D46D6E90001CA682946C9
:104D38009047C0B2082828D1284603F059FC083605
:104D4800A642F1D16D46284603F055FC284603F0EB
:104D5800FEFA802822D9DAF80C000921AAF80010F6
:104D68000068BFF35F8F50B39AF81210012201F068
:104D780015FFDAF818000068BFF35F8FF8B19AF8EA
:104D88001E10012201F00AFF022008B0BDE800074A
:104D9800F0BD072008B0BDE80007F0BD404538BFAA
:104DA800804601200021AAF800005046CAE92B18C5
:104DB800FFF7C7FD082008B0BDE80007F0BD40F6C2
:104DC800F00040F67412C2F22000C2F22002222142
:104DD80003F0AFFFFEDEF0B503AF2DE9000B88B09E
:104DE80004460088042830D1D1E90056E84604F189
:104DF800240140468022B4F8069003F09FFA40460A
:104E08002946324603F0CDFCC0B2082819D16846BD
:104E180003F09DFA80281DD9E068092121800068E7
:104E2800BFF35F8F30B3A17C012201F0B7FEA06908
:104E38000068BFF35F8FE8B1A17F012201F0AEFEE9
:104E4800022008B0BDE8000BF0BD072008B0BDE89F
:104E5800000BF0BD484538BF814601200021208065
:104E68002046C4E92B19FFF76CFD082008B0BDE8FF
:104E7800000BF0BD40F6F00040F67412C2F22000BC
:104E8800C2F22002222103F054FFFEDEF0B503AF88
:104E98002DE9000F8BB083460088042826D10D46E3
:104EA800E9460BF12401904648468022BBF806A04B
:104EB80003F044FA08AE4946304603F030FD304668
:104EC80003F031FDC0B208280CD108AE4FEAC8047F
:104ED8008CB1F5E802010A6931469047083CC0B236
:104EE8000828F5D00BB0BDE8000FF0BD07200BB0C7
:104EF800BDE8000FF0BD08A803F0E7FD684603F021
:104F080026FA80281DD9DBF80C000921ABF800101F
:104F18000068BFF35F8F28B39BF81210012201F0DD
:104F28003DFEDBF818000068BFF35F8FD0B19BF837
:104F38001E10012201F032FE02200BB0BDE8000F66
:104F4800F0BD504538BF824601200021ABF8000073
:104F58005846CBE92B1AFFF7F4FC08200BB0BDE844
:104F6800000FF0BD40F6F00040F67412C2F22000C7
:104F7800C2F22002222103F0DCFEFEDEF0B503AF10
:104F88004DF804BD84B0044690F834000E68D8B1DA
:104F98002068002858D14FF0FF31204640F8201BE8
:104FA800314603F016F9CDE9010101A803F063F9D0
:104FB80060B301AD284603F06DF9284603F05BF9AC
:104FC8000028F7D1012626E003F0E6FD054603F0A8
:104FD800D9FD03F0E4FD2068B0BB4FF0FF31204657
:104FE80040F8201B314603F0F4F8CDE9010101A88F
:104FF80003F041F9B8B101AE304603F04BF9304641
:1050080003F039F90028F7D1012611E001A803F0CF
:10501800F0F880F00106206801302060304604B0C6
:105028005DF804BBF0BD01A803F0E3F880F00106C9
:10503800206801302060E80708BF03F0A5FD30466E
:1050480004B05DF804BBF0BD40F6F01040F68413E0
:10505800C2F2200003AA009040F22900C2F2200008
:10506800C2F22003102103F09BFEFEDEF0B503AF71
:105078004DF804BD84B0044690F834000D6890B132
:105088002068B0BB4FF0FF302946206004F12000B3
:1050980003F09FF8CDE9010101A803F0B4F82068F6
:1050A8000130206021E003F077FD064603F06AFD39
:1050B80003F075FD2068E0B94FF0FF302946206005
:1050C80004F1200003F085F8CDE9010101A803F0FF
:1050D8009AF8206801302060F00706D104B05DF826
:1050E80004BBBDE8F04003F04FBD04B05DF804BB5D
:1050F800F0BD40F6F01040F68413C2F2200003AA77
:10510800009040F22900C2F22000C2F220031021D0
:1051180003F046FEFEDEF0B503AF4DF804BD84B0E3
:10512800044690F834000E68C8B12068002842D1BF
:105138004FF0FF31204640F8201B314603F049F874
:10514800CDE9010101A803F0C9F800281CBF0DF141
:10515800040003F042F820680130206027E003F0E3
:105168001BFD054603F00EFD03F019FD206810BB7A
:105178004FF0FF31204640F8201B314603F029F854
:10518800CDE9010101A803F0A9F800281CBF0DF121
:10519800040003F022F8206801302060E80706D1F7
:1051A80004B05DF804BBBDE8F04003F0EDBC04B00A
:1051B8005DF804BBF0BD40F6F01040F68413C2F26F
:1051C800200003AA009040F22900C2F22000C2F297
:1051D8002003102103F0E4FDFEDE70470020704735
:1051E8007047082070477047F0B503AF4DF8048D3D
:1051F8000546507A012802BF1646107A012802D0C7
:105208005DF8048BF0BD95F82C008846748803F08F
:1052180081FCC0B28442F3D1B079212804BFB088A0
:10522800072830D0B8F8000000F00D000428E7D1B6
:10523800D8F80C000921A8F800100068BFF35F8FA8
:10524800A8B198F81210012201F0A8FCD8F81800AB
:105258000068BFF35F8F00281FBF98F81E10012257
:105268005DF8048BBDE8F04018BF01F097BC40F62C
:10527800F00040F67412C2F22000C2F2200222218D
:1052880003F057FDFEDEB8F800000428B8D1B8F8DE
:105298000600002329796A790728C8F8AC30AB7969
:1052A8002E684FF00105A8F80050C8F8246088F867
:1052B800283088F8292088F82A1028BF0720C8F83D
:1052C800B00040465DF8048BBDE8F040FFF739BBFD
:1052D800F0B503AF4DF8048D84B00546507A012827
:1052E80002BF1646107A012803D004B05DF8048B7B
:1052F800F0BD95F82C008846748803F00BFCC0B20A
:105308008442F2D1B07988B1202814D0222847D11C
:105318003078B8F8001000F0010285F82E20C0F3AC
:10532800400085F82F000629DFD121E0B8F80000F9
:105338000628DAD11CE0D8F8B000812862D2062805
:105348002ED998F82800D8F82410296000F00FFC0E
:1053580098F82910C0B2A871084600F00DFC98F81A
:105368002A20C0B2B8F8001068712A710629BCD189
:10537800D8F818000168BFF35F8FB9B398F81E20FA
:10538800002040F65803009002A8C2F2200301F062
:1053980081FA0820A8F8000004B05DF8048BF0BD7D
:1053A800B8F8000000F00D0004289ED1D8F80C00D1
:1053B8000921A8F800100068BFF35F8FB0B198F812
:1053C8001210012201F0EAFBD8F818000068BFF3B8
:1053D8005F8F00281FBF98F81E10012204B05DF8E7
:1053E800048B1CBFBDE8F04001F0D8BB40F6F000CC
:1053F80040F67412C2F22000C2F22002222103F009
:1054080098FCFEDE40F66C228021C2F2200204F0F5
:10541800EEF8FEDEF0B503AF2DE9000B84B090F88E
:105428002C60814600250220CDE900050C4608467F
:1054380031460222022303F0EFF8C0B208286ED1E9
:105448002046314602220223009503F03BF9C0B200
:10545800082864D140F600222046C2F22002242106
:10546800032302F076FFC0B2082858D140F6032281
:105478002046C2F220022421022302F06AFFC0B2B1
:1054880008284CD1304603F045FB99F82D80064694
:10549800404603F03FFB07F81C0C0620A7F11E024C
:1054A80007F81E0C20462421032307F81D6C02F080
:1054B80050FFC0B2082832D1404603F02BFB07F852
:1054C800190C0120A7F11B0227F81B0C20462421E8
:1054D800032302F03EFFC0B2082820D109F10801D9
:1054E800204600F02FF8C0B2082818D10020414605
:1054F800009020460A22002303F0E4F8C0B20828EE
:105508000DD109F12001204600F01CF8C0B208288E
:1055180005D109F11401204600F014F8C0B204B016
:10552800BDE8000BF0BDD0B502AF82B004466846B6
:1055380000F027FBDDE90001C4E900010020E08557
:1055480002B0D0BDF0B503AF4DF8048D8C4681682C
:1055580081B3C36841698B4249D20269D0F818E027
:10556800D45C0134D4540EF102038B421ED80EF5DC
:105578008074A14238BF0C469C4248D3E41A052CDB
:1055880014D39CF80640BCF80450D45413440EF1CC
:1055980007049CF808608C429CF807805E704FEA0C
:1055A80015269D7083F80480DE7007D902205DF807
:1055B800048BF0BD07205DF8048BF0BD8E451ED22C
:1055C800072302F80E300EF101038B423FBF05217D
:1055D800D154846108203CBF5DF8048BF0BD40F6CF
:1055E8000032C2F22002184603F0BAFBFEDE40F693
:1055F8001032C2F22002184603F0B2FBFEDE40F67B
:10560800F0227046C2F2200203F0AAFBFEDE40F64A
:10561800E0221846C2F22002214604F008F8FEDE15
:1056280070477047F0B503AF4DF804BD84B000680B
:10563800802906684FF00000029003D201248DF8FB
:10564800081034E0B1F5006F09D20224084664F36B
:105658009F108DF80900C02040EA911025E0022033
:105668000A4660F39F12B1F5803F0DD28DF80A20EB
:105678008A0960F39F12E02040EA11308DF8092072
:105688008DF80800032412E08DF80B208A0960F3D6
:105698009F128DF80A200A0B042460F39F12880CCD
:1056A8001E218DF8092061F3DF008DF8080003F052
:1056B80059FA0546B068B8B94FF0FF3006F10C0248
:1056C800B06002A8214600F063F90446B0680130D2
:1056D800B060284603F051FAE0B2033818BF012041
:1056E80004B05DF804BBF0BD40F6D43040F660333A
:1056F800C2F2200003AA009040F22900C2F2200062
:10570800C2F22003102103F04BFBFEDEF0B503AF1D
:105718004DF8048D88B0D0F800C002AA91E8714114
:1057280040F620311346C2F2200183E8714101A8F6
:10573800CDF804C003F05FFB08B05DF8048BF0BD42
:10574800F0B503AF4DF8048D82B0006815460E46DB
:10575800046803F007FA8046A068B8B94FF0FF3034
:1057680004F10C02A0603046294600F011F9054604
:10577800A0680130A060404603F0FFF9E8B20338A2
:1057880018BF012002B05DF8048BF0BD40F6D4309C
:1057980040F66033C2F2200001AA009040F22900CE
:1057A800C2F22000C2F22003102103F0F9FAFEDE53
:1057B800F0B503AF2DE9000748F29C52D1F80080FC
:1057C800C2F200021368B8EB030218BF0122984521
:1057D80038BF4FF0FF32531C1CBFD2B2002A29D168
:1057E80042685AB300680025D1E9019A02EB4201E8
:1057F800061D8C0005E00C3C06F10C0605F10105C0
:1058080018D030685045F6D156F8040C494652462F
:1058180004F08AFB0028EED1706800218045A0F1D1
:105828000600B0FA80F098BF012140090843BDE89E
:105838000007F0BD0020BDE80007F0BD0120BDE86D
:105848000007F0BDF0B503AF2DE9000F93B000904D
:1058580048F29C50C2F200008A46D1F820900168B4
:10586800B9EB010018BF0120894538BF4FF0FF3060
:10587800411C1CBFC0B2002822D10099486818B347
:10588800096800EB4000DAE909B54FF000080C1D83
:10589800860005E00C3E04F10C0408F101080FD065
:1058A8002068A842F6D154F8040C59462A4604F058
:1058B8003BFB0028EED16068062818BF814505D952
:1058C80013B0BDE8000FF0BDDAE909B5009840F65D
:1058D8002031019001A8029041F62730C0F2000063
:1058E8000DAA08900CA8079041F62D30C0F20000D0
:1058F800C2F2200106900AA8059043F6E500C0F21E
:105908000000CDF82490049009A803900AF12C0017
:105918000C90002011900320109003A80F900420F1
:105928000E9040F64030C2F22000CDE90AB50D9045
:1059380002A803F060FA13B0BDE8000FF0BD70478D
:10594800D0B502AF0C4648F268124968C2F20002AC
:10595800A3684FF0000C82E80A1040F6F031C2F25A
:105968002001D060104600F027F9002801BF216807
:1059780048F29C52C2F200021160D0BD48F2781180
:10598800C2F2000188600120BFF35F8F0870704782
:10599800F0B503AF2DE9000F81B0D2F80080894639
:1059A8000446012108F21145BFF35F8FD5E84F0F78
:1059B800C5E8421F002AF9D1BFF35F8F20B101204B
:1059C80001B0BDE8000FF0BDD8F80004BFF35F8F49
:1059D800D8F80414BFF35F8F814204D9C24311EB96
:1059E800020B0BD179E0B0F5806F05D1012974D98C
:1059F800A1F1010B002001E0C0F5806BCA46CB4540
:105A080038BFDA460AEB00014044BFF35F8FC8F89D
:105A18000C142146524604F089FA98F8110408F249
:105A28000C46BFF35F8F58B3D8F80004BFF35F8FFD
:105A3800BFF35F8F56E8001F46E80012002AF9D12D
:105A4800BFF35F8FB0F5806FD8F80824BFF35F8F7E
:105A5800D8F80C14BFF35F8F01D0814203D3914271
:105A680005D94FF48060BFF35F8FC8F80804BFF30F
:105A78005F8FC8F800140020BFF35F8F88F8110407
:105A8800CB456ED204EB0A01A9EB0A020123BFF34E
:105A98005F8FD5E84F0FC5E8443F002CF9D1BFF31D
:105AA8005F8F20B1012001B0BDE8000FF0BDD8F82C
:105AB8000004BFF35F8FD8F80434BFF35F8F8342CD
:105AC80003D9C4431B1913D107E0B0F5806F0DD17A
:105AD800012B02D9013B00200AE000200021BFF37E
:105AE8005F8F297001B0BDE8000FF0BDC0F580637D
:105AF800934238BF1A4613184044BFF35F8FC8F863
:105B08000C3404F013FA98F81104BFF35F8F40B314
:105B1800D8F80004BFF35F8FBFF35F8F56E8001F0C
:105B280046E80012002AF9D1BFF35F8FB0F5806F05
:105B3800D8F80824BFF35F8FD8F80C14BFF35F8F31
:105B480001D0814203D3914205D94FF48060BFF35D
:105B58005F8FC8F80804BFF35F8FC8F800140320EC
:105B6800BCE7032001B0BDE8000FF0BD7047C1B22B
:105B7800032928BF00207047C1B2052928BF00208B
:105B8800704708218180002181714FF4FA5101602A
:105B980070477047006840F64842C2F220020B4640
:105BA80052F8301002EBC0004268184603F062BB9E
:105BB800002070477047704780B56F4648F2985E7E
:105BC800C2F2000E5EE8003F53B94FF0010CBFF37C
:105BD8005F8F4EE800C22AB15EE8003F002BF8D084
:105BE800BFF32F8FBFF35F8F13B1012B1ED02AE0B5
:105BF80044F2C822C2F20002C2E900010220BFF347
:105C08005F8FCEF800000020BFF35F8F80BD10BF0C
:105C1800DEF80000BFF35F8F012801BF10BFDEF878
:105C28000000BFF35F8F01280DD110BFDEF8000020
:105C3800BFF35F8F012801BF10BFDEF80000BFF37C
:105C48005F8F0128E3D0012080BDF0B503AF2DE9B7
:105C5800000F91B0002B3ED102F1100BD2E9009A4F
:105C6800D2E9026348F29852C2F200029BE8300877
:105C7800D2F800E044F2C822BFF35F8FC2F20002FC
:105C8800D2E900C808AACDE903630026CDE9064594
:105C9800BEF1020F82E8020690E83E0040691090CB
:105CA8000BA83EC04FF001006946009040F618402E
:105CB800C2F220000596CDE901B608BF4046426908
:105CC80040F60C40C2F2200008BF6046904711B071
:105CD800BDE8000FF0BD40F6CE4040F62452C2F2B7
:105CE8002000C2F22002552103F023F8FEDE022034
:105CF80070470F207047B0B502AF054608680C46DC
:105D080040F480300860086840F0400008602220B5
:105D180063F31340486040F26850C0F20C10086208
:105D280040F29510C0F2B2004862DC20C0F27A005E
:105D380088627D20C0F25800C8624B20C0F2400043
:105D480008632F20C0F22E004863886346F62010AF
:105D5800C86040F6A31088604FF4C840C8614FF48B
:105D6800C860886140F6C410C0F6804008613F20D2
:105D78004861086820F0030010430860086820F4B0
:105D880080300860C86F4021281D04F0D3F8102027
:105D98002C606864B0BDF0B503AF2DE9000F85B085
:105DA800019001204FF0080C4FF0000E4FF0FF3328
:105DB8004FF0200900254FF0010A09E00CF1010C11
:105DC80009F104094FF4005A0020BCF1210F6FD0EB
:105DD800C007F3D00AF101000AFB0CFB4FF00008E2
:105DE8000CFB00F004900AF102000CFB00F0039099
:105DF8000AF103000CFB00F002901BEB080065D0D1
:105E0800B1FBF0F00446824238BF144688BF104602
:105E1800001B98423EBFE646554603460AF101007C
:105E2800B0F5005FCAD0049C14EB08044ED0B1FB57
:105E3800F4F42646A24238BF164688BF1446A41B6F
:105E48009C423EBFE646054623460130B0F5005F5A
:105E5800B4D0039C14EB080438D0B1FBF4F4264604
:105E6800A24238BF164688BF1446A41B9C423EBFB8
:105E7800E646054623460130B0F5005F9ED0029CF9
:105E880014EB080422D0B1FBF4F4C8442646A2421D
:105E980038BF164688BF1446A41B00F1010A9C426D
:105EA8003EBFE64605462346BAF5005FA5D185E71D
:105EB8002EF0030001990438B0FA80F0C1E900E53A
:105EC8004009087205B0BDE8000FF0BD40F6A050CB
:105ED80040F6BC52C2F22000C2F22002192102F0A0
:105EE80028FFFEDE40EA111043F20001C0F2FF1164
:105EF80008407047006803E0816C002908BF7047BC
:105F0800816C29B1816C00291CBF816C0029F3D1F7
:105F180070470068426D22F00302114341657047E3
:105F280040F22762914238BF0A46B2F5487F98BFCF
:105F38004FF44872A2F5487144F2AF7300688AB210
:105F48005A43C368A1EB124189B2490801EB1241D7
:105F580023F01F0242EA1111C16004E00168B1F1A7
:105F6800FF3FD8BF70470168002905D401680029A0
:105F78005CBF01680029F1D57047704700F1340211
:105F880000F1500110467047F0B503AF2DE9000746
:105F9800ADF5047D6D46804628464FF4007103F048
:105FA800C9FF44F2D02AA5F11006C2F2000A0DF585
:105FB800007900245546DAE96001CDE982014846B6
:105FC8008194809502F0A7FD80AB01340C35202C1C
:105FD8000FCB46F8100F06F104000EC0EBD169464E
:105FE80040464FF4007203F0A3FF0DF5047DBDE8B1
:105FF8000007F0BDF0B503AF2DE9000B44F2E04314
:10600800C4F21F031B68C3F30B2E4FEA135CE6456B
:106018001FBF0124C1F88841DBB24FF47A781FBF53
:1060280003FB08F9ACEB0E04D1F8906149F658650A
:106038001FBFCFF6FF7513FB085393FBF4F3C2EAB7
:1060480006021FBFC1F8902180E80A40C0F80C90F2
:10605800BDE8000B18BFF0BD40F6506040F63C624A
:10606800C2F22000C2F22002192102F062FEFEDE16
:1060780090F800C0DFE80CF004080C1014181C207D
:10608800096801F1680C1AE0096801F16C0C16E066
:10609800096801F1700C12E0096801F1740C0EE056
:1060A800096801F1780C0AE0096801F17C0C06E046
:1060B800096801F1800C02E0096801F1840C40785C
:1060C8000321DCF800304000C0B2824001FA00F041
:1060D80023EA00001043CCF80000704780B56F46F3
:1060E80000684FF400514FF480524FF0400C4FF4C9
:1060F800803E00E0416103699B04FBD50369DB0432
:1061080001D44261F7E70369B3F1FF3FF3DC0369A8
:10611800DB0306D403695B0648BF80BDC0F814C022
:10612800E9E7C0F818E0E6E7014470477047F0B5C2
:1061380003AF4DF804BD82B0044690F834000D4614
:10614800A8B12068E0BB206A4FF0FF312160D0F889
:10615800481121F0450165F3000165F3820165F3FB
:106168008611C0F8481120680130206024E002F050
:1061780013FD064602F006FD02F011FD2068F8B98D
:10618800206A4FF0FF312160D0F8481121F0450115
:1061980065F3000165F3820165F38611C0F84811C3
:1061A800206801302060F00706D102B05DF804BB1A
:1061B800BDE8F04002F0E8BC02B05DF804BBF0BDF9
:1061C80040F6107040F60073C2F2200001AA009059
:1061D80040F22900C2F22000C2F22003102102F08E
:1061E800DFFDFEDEF0B503AF4DF804BD82B0044616
:1061F80090F834000E4648B32068002869D14FF063
:10620800FF3071002060F0B241EAD011A268C8B234
:10621800824217D9E26901F00F011268BFF35F8F5C
:1062280092B222FA01F1C9070CD0A169814249D979
:10623800616900EB800001EB80008068016821F053
:106248000051016020680130206037E002F0A4FCB2
:10625800054602F097FC02F0A2FC2068C8BB4FF08C
:10626800FF3071002060F0B241EAD011A268C8B2D4
:10627800824217D9E26901F00F011268BFF35F8FFC
:1062880092B222FA01F1C9070CD0A169814219D949
:10629800616900EB800001EB80008068016821F0F3
:1062A80000510160206801302060E80706D102B083
:1062B8005DF804BBBDE8F04002F066BC02B05DF8D2
:1062C80004BBF0BD41F21012C2F2200202F048FDF8
:1062D800FEDE40F6107040F60073C2F2200001AAFC
:1062E800009040F22900C2F22000C2F220031021DF
:1062F80002F056FDFEDEF0B503AF2DE9000F83B0C6
:1063080006683168002940F0F580D0E90119B346E4
:10631800D0E903854FF0FF304BF8040B087898B3A9
:106328004D78B268680040EAD511C8B2824211D9E6
:10633800F26901F00F011268BFF35F8F92B222FA7F
:1063480001F1C90706D0B169814240F2CC80012031
:106358000521C1E0F26A0120B9F8003004219A420F
:1063680022BFB46AD21AA242C0F0B680F2622946AD
:1063780098F800000090584601F0AEFE002800F0A2
:10638800CB8000202946A7E02878B26840F0010AAF
:10639800C0F3C01040EA4A01C8B2824240F2868087
:1063A800F26901F00F011268BFF35F8F92B222FA0F
:1063B80001F1C9077AD0B169814240F29480287806
:1063C800B26840F0020AC0F3C01040EA4A01C8B2FD
:1063D80082426BD9F26901F00F011268BFF35F8F37
:1063E80092B222FA01F1C90760D0B16981427AD923
:1063F8002878B26840F0030AC0F3C01040EA4A01A6
:10640800C8B2824252D9F26901F00F011268BFF393
:106418005F8F92B222FA01F1C90747D0B169814270
:1064280061D92878B26840F0040AC0F3C01040EA85
:106438004A01C8B2824239D9F26901F00F011268E3
:10644800BFF35F8F92B222FA01F1C9072ED0B1696A
:10645800814248D92878B26840F0050AC0F3C010D4
:1064680040EA4A01C8B2824220D9F26901F00F011C
:106478001268BFF35F8F92B222FA01F1C90715D0F3
:10648800B16981422FD9287840F0060A584651460A
:1064980000F0E2FC50B1287840F0070A584651460F
:1064A80000F0DAFC10B10120032115E0F26A0120A6
:1064B800B9F8003004219A4222BFB56AD21AAA421A
:1064C8000AD3F262514698F800000090584601F04D
:1064D80003FE08B30020514632680132326003B02F
:1064E800BDE8000FF0BD41F20012C2F2200202F036
:1064F80037FCFEDE40F6107040F60073C2F2200052
:1065080002AA009040F22900C2F22000C2F2200341
:10651800102102F045FCFEDE40F67F7041F21C02BD
:10652800C2F22000C2F220022B2102F002FCFEDEA1
:10653800B0B502AF82B0044690F8340060B120686C
:1065480028BB4FF0FF302060201D01F071FA206851
:106558000130206002B0B0BD02F01EFB054602F01B
:1065680011FB02F01CFB206888B94FF0FF30206057
:10657800201D01F05DFA206801302060E80704D191
:1065880002B0BDE8B04002F0FFBA02B0B0BD40F6BC
:10659800107040F60073C2F2200001AA009040F289
:1065A8002900C2F22000C2F22003102102F0F8FBF9
:1065B800FEDEF0B503AF4DF804BD88B007F82D1C1A
:1065C800A7F12D010791A7F127010691A7F126014F
:1065D800059190F83410D7E902568DF8042001AAE5
:1065E8008DF8053007F8275C27F8266CCDE90302FB
:1065F80021B103A8FFF77FFE0C4611E002F0CCFAA8
:10660800064602F0BFFA02F0CAFA03A8FFF773FEC3
:106618000546F0070C4608BF02F0B6FA05F001007F
:1066280000F00100214608B05DF804BBF0BDF0B5EC
:1066380003AF4DF804BD82B0044690F834000D460F
:1066480070B1206870BB206A4FF0FF312160690685
:1066580001F18071C0F854112068013020601DE0FC
:1066680002F09AFA064602F08DFA02F098FA2068CB
:10667800C0B9206A4FF0FF312160690601F18071CD
:10668800C0F85411206801302060F00706D102B02C
:106698005DF804BBBDE8F04002F076BA02B05DF8E0
:1066A80004BBF0BD40F6107040F60073C2F2200043
:1066B80001AA009040F22900C2F22000C2F2200391
:1066C800102102F06DFBFEDEB0B502AF82B00446C9
:1066D80090F8340078B12068002801BF206AD0F80B
:1066E80040110022226001BF41F00101C0F84011B1
:1066F80002B0B0BD18E002F04FFA054602F042FAC7
:1067080002F04DFA206878B9206A0022D0F84011CA
:10671800226041F00101C0F84011E80716D102B02B
:10672800BDE8B04002F030BA40F6107040F6007391
:10673800C2F2200001AA009040F22900C2F2200013
:10674800C2F22003102102F02BFBFEDE02B0B0BD26
:10675800B0B502AF82B0044690F83400E8B32068C0
:10676800002840F08580206A4FF0FF312160D0F882
:10677800B811C0F8B811D0F8BC11C0F8BC11D0F8E5
:106788007811C0F878110021C0F87C11D0F8B01148
:1067980059B1D0F8B01100291CBFD0F8B0110029A8
:1067A80003D0D0F8B0110029F0D14FF0FF31C0F874
:1067B800B411D0F8B41159B1D0F8B41100291CBFE4
:1067C800D0F8B411002903D0D0F8B4110029F0D1C1
:1067D80020680130206002B0B0BD02F0DDF9054646
:1067E80002F0D0F902F0DBF92068002840D1206AD5
:1067F8004FF0FF312160D0F8B811C0F8B811D0F8C7
:10680800BC11C0F8BC11D0F87811C0F8781100217B
:10681800C0F87C11D0F8B01159B1D0F8B0110029E6
:106828001CBFD0F8B011002903D0D0F8B01100294E
:10683800F0D14FF0FF31C0F8B411D0F8B41159B10C
:10684800D0F8B41100291CBFD0F8B411002903D026
:10685800D0F8B4110029F0D1206801302060E80791
:1068680004D102B0BDE8B04002F08EB902B0B0BDAC
:1068780040F6107040F60073C2F2200001AA0090A2
:1068880040F22900C2F22000C2F22003102102F0D7
:1068980087FAFEDEF0B503AF2DE9000784B00446A1
:1068A80091F83400D7F808809A4616460D46B8B3D2
:1068B8002868002840F09E804FF0FF307100286063
:1068C800F0B241EAD011AA68C8B282421DD9EA6979
:1068D80001F00F011268BFF35F8F92B222FA01F143
:1068E800C90712D0A96981427DD9291D70065FD0D8
:1068F80001A852464346009600F04DFE9DF804005C
:1069080000285ED09DF8050000E005206070012099
:1069180029682070481C286004B0BDE80007F0BD55
:1069280002F03AF9814602F02DF902F038F92868A8
:1069380000285FD14FF0FF3071002860F0B241EAC3
:10694800D011AA68C8B282421ED9EA6901F00F01C3
:106958001268BFF35F8F92B222FA01F1C90713D010
:10696800A96981423FD9291D70062ED001A8524637
:106978004346009600F00FFE9DF8040070B39DF8A2
:1069880005604FF0010802E04FF00108052628686D
:10699800013028605FEAC97008BF02F0F5F8F0B26C
:1069A80048EA0020C4E9000A04B0BDE80007F0BDC9
:1069B80001A85246434600F0B9FB9DF804000028A0
:1069C800A0D1029860600020A2E701A85246434681
:1069D80000F0ACFB9DF804000028D0D1DDF808A039
:1069E8004FF00008D3E741F20012C2F2200202F091
:1069F800B7F9FEDE40F6107040F60073C2F22000D0
:106A080003AA009040F22900C2F22000C2F220033B
:106A1800102102F0C5F9FEDEF0B503AF2DE900073D
:106A280084B0044691F83400D7F808809A46164690
:106A38000D46B8B32868002840F09E804FF0FF301C
:106A480071002860F0B241EAD011AA68C8B2824247
:106A58001DD9EA6901F00F011268BFF35F8F92B286
:106A680022FA01F1C90712D0A96981427DD9291DED
:106A780070065FD001A852464346009600F0A1FC7C
:106A88009DF8040000285ED09DF8050000E0052070
:106A98006070012029682070481C286004B0BDE897
:106AA8000007F0BD02F078F8814602F06BF802F0BA
:106AB80076F8286800285FD14FF0FF307100286011
:106AC800F0B241EAD011AA68C8B282421ED9EA6976
:106AD80001F00F011268BFF35F8F92B222FA01F141
:106AE800C90713D0A96981423FD9291D70062ED044
:106AF80001A852464346009600F063FC9DF8040046
:106B080070B39DF805604FF0010802E04FF00108EE
:106B180005262868013028605FEAC97008BF02F0BE
:106B280033F8F0B248EA0020C4E9000A04B0BDE82E
:106B38000007F0BD01A85246434600F0B1F99DF8A0
:106B480004000028A0D1029860600020A2E701A8F4
:106B58005246434600F0A4F99DF804000028D0D11D
:106B6800DDF808A04FF00008D3E741F20012C2F2A6
:106B7800200202F0F5F8FEDE40F6107040F60073D1
:106B8800C2F2200003AA009040F22900C2F22000BD
:106B9800C2F22003102102F003F9FEDEF0B503AFC4
:106BA8004DF8048D82B0044690F8340016460D4620
:106BB80020B32068002860D14FF0FF3069002060C2
:106BC800E8B241EAD011A268C8B2824212D9E26999
:106BD80001F00F011268BFF35F8F92B222FA01F140
:106BE800C90707D0A169814240D9201D31462A46EC
:106BF80000F0C2FD20680130206033E001F0CCFFD6
:106C0800804601F0BFFF01F0CAFF2068A8BB4FF023
:106C1800FF3069002060E8B241EAD011A268C8B22A
:106C2800824212D9E26901F00F011268BFF35F8F47
:106C380092B222FA01F1C90707D0A169814215D998
:106C4800201D31462A4600F097FD2068013020605B
:106C58005FEAC87006D102B05DF8048BBDE8F04069
:106C680001F092BF02B05DF8048BF0BD41F2001252
:106C7800C2F2200202F074F8FEDE40F6107040F610
:106C88000073C2F2200001AA009040F22900C2F26B
:106C98002000C2F22003102102F082F8FEDEF0B5D7
:106CA80003AF4DF804BD82B0044690F834000D4699
:106CB80098B120684FF6FE71C7F6FF7188422DD84B
:106CC80001302060201D294600F02CFE2168013982
:106CD800216002B05DF804BBF0BD01F05DFF06461F
:106CE80001F050FF01F05BFF20684FF6FE71C7F618
:106CF800FF71884212D801302060201D294600F01B
:106D080011FE0546206801382060F00708BF01F031
:106D18003BFF284602B05DF804BBF0BD40F6F060CA
:106D280040F68463C2F2200001AA009040F6696030
:106D3800C2F22000C2F22003182102F031F8FEDE70
:106D48007047F0B503AF4DF804BD86B0044691F81E
:106D580034000D4678B1286860BB4FF0FF30291D1C
:106D68002860204600F076FF28680130286006B0C9
:106D78005DF804BBF0BD01F00FFF064601F002FF0D
:106D880001F00DFF2868A8B94FF0FF30291D2860D1
:106D980002A800F05FFF286801302860F00708BFEC
:106DA80001F0F2FEDDE902012060616006B05DF8E5
:106DB80004BBF0BD40F6107040F60073C2F220002C
:106DC80005AA009040F22900C2F22000C2F2200376
:106DD800102101F0E5FFFEDE80B56F46D0E9072EF1
:106DE8004FF0004C4FF08043CEF834C0CEF838C096
:106DF800CEF838300023CEF800300223C2F84031F4
:106E0800D2F840319B070CD5D2F840319B0744BFDC
:106E1800D2F840315FEA837303D5D2F840319B073B
:106E2800EED44FF0000C0A23C2F840C10029C2F882
:106E3800A831D2F8843123F0807308BF03F180733E
:106E4800C2F88431D2F844110068C2F84411C2F87B
:106E580048C1C2F8580180BD80B56F4602464368F4
:106E6800C8B2490041EAD011C8B2834216D9936921
:106E780001F00F011B68BFF35F8F9BB223FA01F18A
:106E8800C9070BD05169814284BF012080BD41F2FE
:106E98000012C2F2200201F063FFFEDE002080BD76
:106EA800F0B503AF2DE9000F83B08046486800288D
:106EB8001FBF88690068BFF35F8F5FEAC0700BD19E
:106EC80040F67F7040F6AC72C2F22000C2F2200297
:106ED8002B2101F02EFFFEDE4869002800F0148106
:106EE80051F81C4F91460122082B51F80C0C90F9CF
:106EF80010E0D4F8AC510EF01F0C02FA0CF66ED369
:106F080016EA05026BD08568C4F8AC61D4F8402154
:106F180042F40052C4F84021D5E90A36D4F8402199
:106F2800920425D4D4F8402142F40052C4F84021F8
:106F3800D5E90A36D4F8402192045FBFD4F840213D
:106F480042F40052C4F84021D5E90A365CBFD4F8AF
:106F580040215FEA82420BD4D4F8402142F4005227
:106F6800C4F84021D5E90A36D4F840219204CDD599
:106F7800D4F84021012522F40052C4F84021C9F870
:106F88000460C9F80030027CD4F8B86153B202F04A
:106F98001F02002B48BF360C95402E40360614D1F0
:106FA8004FF48036B3F1FF3FC8BF01264FF47F038B
:106FB80006FA02F2C8BFFF231A40C4F87821826893
:106FC8001268C2F30A4200F01AFF0820C8F8040049
:106FD800002088F8000003B0BDE8000FF0BDC268CB
:106FE800526812F0680F01D0072009E0D4F8B821E0
:106FF800BEF1000F48BF120C3240120609D0002023
:1070080088F80100012088F8000003B0BDE8000FEF
:10701800F0BD4FF480364FF47F02BEF1FF3FC8BF8A
:107028000126C8BFFF2206FA0CF63240C4F8BC217C
:1070380090F910204FF4803A4FF47F05B2F1FF3FEA
:1070480002F01F02C4BFFF254FF0010A0AFA02F23C
:107058002A40C4F87821D0E9026235685468D269B8
:10706800C5F30A4CC4F30E459C45A2EB050228BFA4
:107078009C46944528BF94469C454ED8D0F804B009
:10708800DC4538BFE346BBF1000F35D0D0F800A08F
:1070980009EB0C03ABF1010EABF1020200260292E0
:1070A800ABF103020192B44525D00AEB06044A4627
:1070B800B645257802F8015B18BF9A421BD0627862
:1070C80089F80120029AB2421CBF09F102029A42D1
:1070D80011D0A27889F80220019AB2421CBF09F1A6
:1070E80003029A4207D0E278043689F8032009F1AE
:1070F8000409B345D7D186683268C2F30A4200F062
:107108007EFEC8F804B063E741F210120020C2F214
:107118002002002101F024FEFEDE41F290026046CA
:10712800C2F22002194602F062FAFEDEF0B503AFA1
:107138002DE9000F85B0834648680228C0F02981F0
:1071480088690E460068BFF35F8F800740F1218190
:107158007169012940F20C813569296A496811F081
:10716800680F01D0072015E0B24695F824105AF8A8
:107178001C9F904601244FFA81FC01F01F01D9F8A9
:10718800B821BCF1000F48BF120C8C4022401206F7
:1071980009D000208BF8010001208BF8000005B011
:1071A800BDE8000FF0BD4FF48032BCF1FF3FC8BF0F
:1071B80001224FF47F0402FA01F1C8BFFF242140E5
:1071C800C9F87811D5E9062105F114000968C1F359
:1071D8000A41994238BF0B46934238BF1A46002AE3
:1071E8004DD0D51E0495056808EB0301541EA2F185
:1071F800020CCDE9029A4FF00009019010464B4568
:1072080029D0424605EB090A12F801EB4C458AF8E9
:1072180000E018BF8A421ED098F80120CC458AF8B1
:1072280001201CBF08F102028A4214D098F80220FB
:107238008AF80220049A4A451CBF08F103028A42D0
:1072480009D098F8032009F1040908F10408484511
:107258008AF80320D3D1012101EB541A0AF003095B
:10726800044601F093FC4EF6707025F01F01CEF233
:107278000000A046612C08D2DDF80CA017E090466B
:107288005146002200F0BBFD23E02AF00302DDF89E
:107298000CA001F120030160036001F140030360C9
:1072A80001F16003043A01F180010360F1D1B9F101
:1072B800000F1CBF0160B9F1010F50D101F066FC4D
:1072C80001F067FC01985146424600F098FDDDF850
:1072D8000890B0690068BFF35F8FC00765D0706918
:1072E80000284DD030690126017CD9F8B8314AB25E
:1072F80001F01F01002A48BF1B0C8E4033401B06BB
:1073080024D1B2F1FF3F4FF48032C8BF01224FF4BD
:107318007F0502FA01F1C8BFFF252940C9F8BC1151
:1073280090F910104FF480334FF47F060022B1F12A
:10733800FF3F01F01F01C4BFFF26012303FA01F13B
:107348003140C9F87811514600F059FDCBF8048056
:1073580000208BF8000005B0BDE8000FF0BD01F17A
:1073680020020260B9F1020F1CBF40310160A5E79D
:1073780041F210120120C2F2200201F0F1FCFEDEFF
:1073880041F210120020C2F22002002101F0E8FCB4
:10739800FEDE40F67F7040F6CC72C2F22000C2F2E8
:1073A80020022B2101F0C5FCFEDE40F67F7040F67E
:1073B800BC72C2F22000C2F220022B2101F0B9FCFB
:1073C800FEDEF0B503AF2DE9000F83B08046387AB2
:1073D80091460C464A68410041EAD011C8B282423F
:1073E80040F2C480A26901F00F011268BFF35F8FF9
:1073F80092B222FA01F1C90700F0B88061698142AE
:1074080040F2AD80216900EB800001EB8000C1688B
:10741800496811F0680F01D0072012E02146027C6C
:1074280051F81CCF02F01F0E56B20122DCF8B851F9
:1074380002FA0EF2002E48BF2D0C2A40120609D07F
:10744800002088F80100012088F8000003B0BDE89A
:10745800000FF0BDA28D06F00F04E240D207EFD076
:10746800B6F1FF3F4FF480344FF47F06C8BF0124C4
:10747800C8BFFF2604FA0EF42640CCF8BC6190F988
:1074880010604FF480324FF47F05B6F1FF3F06F0ED
:107498001F06C4BFFF250122B2402A40CCF878213C
:1074A800D0E9026235685468D269C5F30A4CC4F35E
:1074B8000E459C45A2EB050228BF9C46944528BF73
:1074C80094469C455ED8D0F804B0DC4538BFE34606
:1074D800BBF1000F35D0D0F800A009EB0C03ABF1DD
:1074E800010EABF1020200260292ABF103020192F7
:1074F800B44525D00AEB06044A46B645257802F875
:10750800015B18BF9A421BD0627889F80120029A61
:10751800B2421CBF09F102029A4211D0A27889F83E
:107528000220019AB2421CBF09F103029A4207D015
:10753800E278043689F8032009F10409B345D7D164
:1075480086683268C2F30A4200F059FCC8F804B0F1
:10755800002088F8000003B0BDE8000FF0BD41F23C
:107568001012C2F2200201F0FBFBFEDE40F67F7033
:1075780040F6DC72C2F22000C2F220022B2101F098
:10758800D8FBFEDE41F290026046C2F220021946A4
:1075980002F02DF8FEDEF0B503AF2DE9000F83B041
:1075A8008346387A96460D464A68410041EAD0112A
:1075B800C8B2824240F2D380AA6901F00F01126872
:1075C800BFF35F8F92B222FA01F1C90700F0C780BA
:1075D8006969814240F2BC80296900EB800001EBB7
:1075E8008009D9F80C00406810F0680F01D0072016
:1075F80011E099F81010012655F81C0F4CB201F053
:107608001F01D0F8B821002C48BF120C8E40324020
:10761800120609D000208BF8010001208BF8000029
:1076280003B0BDE8000FF0BD4FF48032B4F1FF3F66
:10763800C8BF01224FF47F0602FA01F1C8BFFF2636
:107648003140C0F87811D9E901800068C0F30A40D8
:10765800984238BF0346434538BF9846B8F1000FF3
:107668005FD0A8F10200D9F800600290A8F10300E9
:107678000EEB0301A8F1010A01900020834225D0F6
:107688007246341812F801CB824584F800C018BF3E
:107698008A421BD09EF801206270029A82421CBF67
:1076A8000EF102028A4211D09EF80220A270019ABD
:1076B80082421CBF0EF103028A4207D09EF80320C3
:1076C80004300EF1040E8045E270D7D1012000EBA2
:1076D8005A1404F0030A01F059FA4EF6707026F0B5
:1076E8001F01CEF20000B8F1610F0FD324F003029E
:1076F80001F120030160036001F14003036001F11F
:107708006003043A01F180010360F1D1BAF1000F7E
:107718001CBF0160BAF1010F11D101F037FA01F075
